{
  "address": "0x7758a52c1Bb823d02878B67aD87B6bA37a0CDbF5",
  "abi": [
    {
      "inputs": [
        {
          "internalType": "string",
          "name": "_name",
          "type": "string"
        },
        {
          "internalType": "string",
          "name": "_symbol",
          "type": "string"
        },
        {
          "internalType": "uint256",
          "name": "_initialSupply",
          "type": "uint256"
        }
      ],
      "stateMutability": "nonpayable",
      "type": "constructor"
    },
    {
      "anonymous": false,
      "inputs": [
        {
          "indexed": true,
          "internalType": "address",
          "name": "owner",
          "type": "address"
        },
        {
          "indexed": true,
          "internalType": "address",
          "name": "spender",
          "type": "address"
        },
        {
          "indexed": false,
          "internalType": "uint256",
          "name": "value",
          "type": "uint256"
        }
      ],
      "name": "Approval",
      "type": "event"
    },
    {
      "anonymous": false,
      "inputs": [
        {
          "indexed": true,
          "internalType": "address",
          "name": "previousOwner",
          "type": "address"
        },
        {
          "indexed": true,
          "internalType": "address",
          "name": "newOwner",
          "type": "address"
        }
      ],
      "name": "OwnershipTransferred",
      "type": "event"
    },
    {
      "anonymous": false,
      "inputs": [
        {
          "indexed": false,
          "internalType": "address",
          "name": "account",
          "type": "address"
        }
      ],
      "name": "Paused",
      "type": "event"
    },
    {
      "anonymous": false,
      "inputs": [
        {
          "indexed": true,
          "internalType": "address",
          "name": "from",
          "type": "address"
        },
        {
          "indexed": true,
          "internalType": "address",
          "name": "to",
          "type": "address"
        },
        {
          "indexed": false,
          "internalType": "uint256",
          "name": "value",
          "type": "uint256"
        }
      ],
      "name": "Transfer",
      "type": "event"
    },
    {
      "anonymous": false,
      "inputs": [
        {
          "indexed": false,
          "internalType": "address",
          "name": "account",
          "type": "address"
        }
      ],
      "name": "Unpaused",
      "type": "event"
    },
    {
      "inputs": [
        {
          "internalType": "address",
          "name": "owner",
          "type": "address"
        },
        {
          "internalType": "address",
          "name": "spender",
          "type": "address"
        }
      ],
      "name": "allowance",
      "outputs": [
        {
          "internalType": "uint256",
          "name": "",
          "type": "uint256"
        }
      ],
      "stateMutability": "view",
      "type": "function"
    },
    {
      "inputs": [
        {
          "internalType": "address",
          "name": "spender",
          "type": "address"
        },
        {
          "internalType": "uint256",
          "name": "amount",
          "type": "uint256"
        }
      ],
      "name": "approve",
      "outputs": [
        {
          "internalType": "bool",
          "name": "",
          "type": "bool"
        }
      ],
      "stateMutability": "nonpayable",
      "type": "function"
    },
    {
      "inputs": [
        {
          "internalType": "address",
          "name": "account",
          "type": "address"
        }
      ],
      "name": "balanceOf",
      "outputs": [
        {
          "internalType": "uint256",
          "name": "",
          "type": "uint256"
        }
      ],
      "stateMutability": "view",
      "type": "function"
    },
    {
      "inputs": [],
      "name": "blackListedDisabled",
      "outputs": [
        {
          "internalType": "bool",
          "name": "",
          "type": "bool"
        }
      ],
      "stateMutability": "view",
      "type": "function"
    },
    {
      "inputs": [
        {
          "internalType": "address",
          "name": "_user",
          "type": "address"
        },
        {
          "internalType": "bool",
          "name": "_isBlacklisted",
          "type": "bool"
        }
      ],
      "name": "blacklist",
      "outputs": [],
      "stateMutability": "nonpayable",
      "type": "function"
    },
    {
      "inputs": [
        {
          "internalType": "address",
          "name": "",
          "type": "address"
        }
      ],
      "name": "blacklisted",
      "outputs": [
        {
          "internalType": "bool",
          "name": "",
          "type": "bool"
        }
      ],
      "stateMutability": "view",
      "type": "function"
    },
    {
      "inputs": [],
      "name": "bpContract",
      "outputs": [
        {
          "internalType": "contract IBPContract",
          "name": "",
          "type": "address"
        }
      ],
      "stateMutability": "view",
      "type": "function"
    },
    {
      "inputs": [],
      "name": "bpDisabledForever",
      "outputs": [
        {
          "internalType": "bool",
          "name": "",
          "type": "bool"
        }
      ],
      "stateMutability": "view",
      "type": "function"
    },
    {
      "inputs": [],
      "name": "bpEnabled",
      "outputs": [
        {
          "internalType": "bool",
          "name": "",
          "type": "bool"
        }
      ],
      "stateMutability": "view",
      "type": "function"
    },
    {
      "inputs": [
        {
          "internalType": "uint256",
          "name": "amount",
          "type": "uint256"
        }
      ],
      "name": "burn",
      "outputs": [],
      "stateMutability": "nonpayable",
      "type": "function"
    },
    {
      "inputs": [
        {
          "internalType": "address",
          "name": "account",
          "type": "address"
        },
        {
          "internalType": "uint256",
          "name": "amount",
          "type": "uint256"
        }
      ],
      "name": "burnFrom",
      "outputs": [],
      "stateMutability": "nonpayable",
      "type": "function"
    },
    {
      "inputs": [],
      "name": "decimals",
      "outputs": [
        {
          "internalType": "uint8",
          "name": "",
          "type": "uint8"
        }
      ],
      "stateMutability": "view",
      "type": "function"
    },
    {
      "inputs": [
        {
          "internalType": "address",
          "name": "spender",
          "type": "address"
        },
        {
          "internalType": "uint256",
          "name": "subtractedValue",
          "type": "uint256"
        }
      ],
      "name": "decreaseAllowance",
      "outputs": [
        {
          "internalType": "bool",
          "name": "",
          "type": "bool"
        }
      ],
      "stateMutability": "nonpayable",
      "type": "function"
    },
    {
      "inputs": [],
      "name": "disableBlacklist",
      "outputs": [],
      "stateMutability": "nonpayable",
      "type": "function"
    },
    {
      "inputs": [],
      "name": "disablePause",
      "outputs": [],
      "stateMutability": "nonpayable",
      "type": "function"
    },
    {
      "inputs": [
        {
          "internalType": "address",
          "name": "spender",
          "type": "address"
        },
        {
          "internalType": "uint256",
          "name": "addedValue",
          "type": "uint256"
        }
      ],
      "name": "increaseAllowance",
      "outputs": [
        {
          "internalType": "bool",
          "name": "",
          "type": "bool"
        }
      ],
      "stateMutability": "nonpayable",
      "type": "function"
    },
    {
      "inputs": [],
      "name": "name",
      "outputs": [
        {
          "internalType": "string",
          "name": "",
          "type": "string"
        }
      ],
      "stateMutability": "view",
      "type": "function"
    },
    {
      "inputs": [],
      "name": "owner",
      "outputs": [
        {
          "internalType": "address",
          "name": "",
          "type": "address"
        }
      ],
      "stateMutability": "view",
      "type": "function"
    },
    {
      "inputs": [],
      "name": "pause",
      "outputs": [],
      "stateMutability": "nonpayable",
      "type": "function"
    },
    {
      "inputs": [],
      "name": "pauseDisabled",
      "outputs": [
        {
          "internalType": "bool",
          "name": "",
          "type": "bool"
        }
      ],
      "stateMutability": "view",
      "type": "function"
    },
    {
      "inputs": [],
      "name": "paused",
      "outputs": [
        {
          "internalType": "bool",
          "name": "",
          "type": "bool"
        }
      ],
      "stateMutability": "view",
      "type": "function"
    },
    {
      "inputs": [],
      "name": "renounceOwnership",
      "outputs": [],
      "stateMutability": "nonpayable",
      "type": "function"
    },
    {
      "inputs": [
        {
          "internalType": "address",
          "name": "addr",
          "type": "address"
        }
      ],
      "name": "setBPContract",
      "outputs": [],
      "stateMutability": "nonpayable",
      "type": "function"
    },
    {
      "inputs": [],
      "name": "setBPDisableForever",
      "outputs": [],
      "stateMutability": "nonpayable",
      "type": "function"
    },
    {
      "inputs": [
        {
          "internalType": "bool",
          "name": "enabled",
          "type": "bool"
        }
      ],
      "name": "setBPEnabled",
      "outputs": [],
      "stateMutability": "nonpayable",
      "type": "function"
    },
    {
      "inputs": [],
      "name": "symbol",
      "outputs": [
        {
          "internalType": "string",
          "name": "",
          "type": "string"
        }
      ],
      "stateMutability": "view",
      "type": "function"
    },
    {
      "inputs": [],
      "name": "totalSupply",
      "outputs": [
        {
          "internalType": "uint256",
          "name": "",
          "type": "uint256"
        }
      ],
      "stateMutability": "view",
      "type": "function"
    },
    {
      "inputs": [
        {
          "internalType": "address",
          "name": "to",
          "type": "address"
        },
        {
          "internalType": "uint256",
          "name": "amount",
          "type": "uint256"
        }
      ],
      "name": "transfer",
      "outputs": [
        {
          "internalType": "bool",
          "name": "",
          "type": "bool"
        }
      ],
      "stateMutability": "nonpayable",
      "type": "function"
    },
    {
      "inputs": [
        {
          "internalType": "address",
          "name": "from",
          "type": "address"
        },
        {
          "internalType": "address",
          "name": "to",
          "type": "address"
        },
        {
          "internalType": "uint256",
          "name": "amount",
          "type": "uint256"
        }
      ],
      "name": "transferFrom",
      "outputs": [
        {
          "internalType": "bool",
          "name": "",
          "type": "bool"
        }
      ],
      "stateMutability": "nonpayable",
      "type": "function"
    },
    {
      "inputs": [
        {
          "internalType": "address",
          "name": "newOwner",
          "type": "address"
        }
      ],
      "name": "transferOwnership",
      "outputs": [],
      "stateMutability": "nonpayable",
      "type": "function"
    },
    {
      "inputs": [],
      "name": "unpause",
      "outputs": [],
      "stateMutability": "nonpayable",
      "type": "function"
    },
    {
      "inputs": [
        {
          "internalType": "address",
          "name": "_user",
          "type": "address"
        },
        {
          "internalType": "bool",
          "name": "_isWhitelisted",
          "type": "bool"
        }
      ],
      "name": "whitelist",
      "outputs": [],
      "stateMutability": "nonpayable",
      "type": "function"
    },
    {
      "inputs": [
        {
          "internalType": "address",
          "name": "",
          "type": "address"
        }
      ],
      "name": "whitelisted",
      "outputs": [
        {
          "internalType": "bool",
          "name": "",
          "type": "bool"
        }
      ],
      "stateMutability": "view",
      "type": "function"
    }
  ],
  "transactionHash": "0x9c92a4eb93933a8a2e3ed070dc9a9a318204b421cb8e643df01d4ea671724187",
  "args": [
    "Ookeenga",
    "OKG",
    "500000000000000000000000000"
  ],
  "numDeployments": 2,
  "solcInputHash": "152d26f887594f06cd8efcf35954fdda",
  "bytecode": "0x60806040523480156200001157600080fd5b50604051620039a8380380620039a8833981810160405281019062000037919062000858565b8282816003908051906020019062000051929190620005d0565b5080600490805190602001906200006a929190620005d0565b5050506000600560006101000a81548160ff021916908315150217905550620000a86200009c620000d260201b60201c565b620000da60201b60201c565b620000c9620000bc620000d260201b60201c565b82620001a060201b60201c565b50505062000bf9565b600033905090565b6000600560019054906101000a900473ffffffffffffffffffffffffffffffffffffffff16905081600560016101000a81548173ffffffffffffffffffffffffffffffffffffffff021916908373ffffffffffffffffffffffffffffffffffffffff1602179055508173ffffffffffffffffffffffffffffffffffffffff168173ffffffffffffffffffffffffffffffffffffffff167f8be0079c531659141344cd1fd0a4f28419497f9722a3daafe3b4186f6b6457e060405160405180910390a35050565b600073ffffffffffffffffffffffffffffffffffffffff168273ffffffffffffffffffffffffffffffffffffffff160362000212576040517f08c379a0000000000000000000000000000000000000000000000000000000008152600401620002099062000953565b60405180910390fd5b62000226600083836200031860201b60201c565b80600260008282546200023a9190620009a4565b92505081905550806000808473ffffffffffffffffffffffffffffffffffffffff1673ffffffffffffffffffffffffffffffffffffffff1681526020019081526020016000206000828254620002919190620009a4565b925050819055508173ffffffffffffffffffffffffffffffffffffffff16600073ffffffffffffffffffffffffffffffffffffffff167fddf252ad1be2c89b69c2b068fc378daa952ba7f163c4a11628f55a4df523b3ef83604051620002f8919062000a12565b60405180910390a36200031460008383620005af60201b60201c565b5050565b600860169054906101000a900460ff1680620003d35750600660008473ffffffffffffffffffffffffffffffffffffffff1673ffffffffffffffffffffffffffffffffffffffff16815260200190815260200160002060009054906101000a900460ff1680620003d15750600660008373ffffffffffffffffffffffffffffffffffffffff1673ffffffffffffffffffffffffffffffffffffffff16815260200190815260200160002060009054906101000a900460ff165b155b62000415576040517f08c379a00000000000000000000000000000000000000000000000000000000081526004016200040c9062000a7f565b60405180910390fd5b62000425620005b460201b60201c565b15806200048a57506007600062000441620000d260201b60201c565b73ffffffffffffffffffffffffffffffffffffffff1673ffffffffffffffffffffffffffffffffffffffff16815260200190815260200160002060009054906101000a900460ff165b620004cc576040517f08c379a0000000000000000000000000000000000000000000000000000000008152600401620004c39062000af1565b60405180910390fd5b600860149054906101000a900460ff168015620004f65750600860159054906101000a900460ff16155b156200059257600860009054906101000a900473ffffffffffffffffffffffffffffffffffffffff1673ffffffffffffffffffffffffffffffffffffffff16637e2f3afd8484846040518463ffffffff1660e01b81526004016200055d9392919062000b58565b600060405180830381600087803b1580156200057857600080fd5b505af11580156200058d573d6000803e3d6000fd5b505050505b620005aa838383620005cb60201b620013a41760201c565b505050565b505050565b6000600560009054906101000a900460ff16905090565b505050565b828054620005de9062000bc4565b90600052602060002090601f0160209004810192826200060257600085556200064e565b82601f106200061d57805160ff19168380011785556200064e565b828001600101855582156200064e579182015b828111156200064d57825182559160200191906001019062000630565b5b5090506200065d919062000661565b5090565b5b808211156200067c57600081600090555060010162000662565b5090565b6000604051905090565b600080fd5b600080fd5b600080fd5b600080fd5b6000601f19601f8301169050919050565b7f4e487b7100000000000000000000000000000000000000000000000000000000600052604160045260246000fd5b620006e9826200069e565b810181811067ffffffffffffffff821117156200070b576200070a620006af565b5b80604052505050565b60006200072062000680565b90506200072e8282620006de565b919050565b600067ffffffffffffffff821115620007515762000750620006af565b5b6200075c826200069e565b9050602081019050919050565b60005b83811015620007895780820151818401526020810190506200076c565b8381111562000799576000848401525b50505050565b6000620007b6620007b08462000733565b62000714565b905082815260208101848484011115620007d557620007d462000699565b5b620007e284828562000769565b509392505050565b600082601f83011262000802576200080162000694565b5b8151620008148482602086016200079f565b91505092915050565b6000819050919050565b62000832816200081d565b81146200083e57600080fd5b50565b600081519050620008528162000827565b92915050565b6000806000606084860312156200087457620008736200068a565b5b600084015167ffffffffffffffff8111156200089557620008946200068f565b5b620008a386828701620007ea565b935050602084015167ffffffffffffffff811115620008c757620008c66200068f565b5b620008d586828701620007ea565b9250506040620008e88682870162000841565b9150509250925092565b600082825260208201905092915050565b7f45524332303a206d696e7420746f20746865207a65726f206164647265737300600082015250565b60006200093b601f83620008f2565b9150620009488262000903565b602082019050919050565b600060208201905081810360008301526200096e816200092c565b9050919050565b7f4e487b7100000000000000000000000000000000000000000000000000000000600052601160045260246000fd5b6000620009b1826200081d565b9150620009be836200081d565b9250827fffffffffffffffffffffffffffffffffffffffffffffffffffffffffffffffff03821115620009f657620009f562000975565b5b828201905092915050565b62000a0c816200081d565b82525050565b600060208201905062000a29600083018462000a01565b92915050565b7f5472616e7366657220626c61636b6c6973746564000000000000000000000000600082015250565b600062000a67601483620008f2565b915062000a748262000a2f565b602082019050919050565b6000602082019050818103600083015262000a9a8162000a58565b9050919050565b7f5472616e73666572207061757365640000000000000000000000000000000000600082015250565b600062000ad9600f83620008f2565b915062000ae68262000aa1565b602082019050919050565b6000602082019050818103600083015262000b0c8162000aca565b9050919050565b600073ffffffffffffffffffffffffffffffffffffffff82169050919050565b600062000b408262000b13565b9050919050565b62000b528162000b33565b82525050565b600060608201905062000b6f600083018662000b47565b62000b7e602083018562000b47565b62000b8d604083018462000a01565b949350505050565b7f4e487b7100000000000000000000000000000000000000000000000000000000600052602260045260246000fd5b6000600282049050600182168062000bdd57607f821691505b60208210810362000bf35762000bf262000b95565b5b50919050565b612d9f8062000c096000396000f3fe608060405234801561001057600080fd5b50600436106101fb5760003560e01c8063715018a61161011a578063af200252116100ad578063dbac26e91161007c578063dbac26e914610558578063dd62ed3e14610588578063ea43915e146105b8578063f2fde38b146105c2578063f59c3708146105de576101fb565b8063af200252146104e4578063b957624414610500578063c17d2a061461051e578063d936547e14610528576101fb565b80638da5cb5b116100e95780638da5cb5b1461044857806395d89b4114610466578063a457c2d714610484578063a9059cbb146104b4576101fb565b8063715018a6146103fc57806378f745601461040657806379cc6790146104225780638456cb591461043e576101fb565b80633f4ba83a11610192578063584f969a11610161578063584f969a1461038657806359c00227146103905780635c975abb146103ae57806370a08231146103cc576101fb565b80633f4ba83a14610326578063404e51291461033057806342966c681461034c5780634aaee11214610368576101fb565b806323b872dd116101ce57806323b872dd1461028a57806326898da9146102ba578063313ce567146102d857806339509351146102f6576101fb565b806306fdde0314610200578063095ea7b31461021e57806312ed103a1461024e57806318160ddd1461026c575b600080fd5b6102086105fa565b6040516102159190611f6f565b60405180910390f35b6102386004803603810190610233919061202a565b61068c565b6040516102459190612085565b60405180910390f35b6102566106af565b6040516102639190612085565b60405180910390f35b6102746106c2565b60405161028191906120af565b60405180910390f35b6102a4600480360381019061029f91906120ca565b6106cc565b6040516102b19190612085565b60405180910390f35b6102c26106fb565b6040516102cf9190612085565b60405180910390f35b6102e061070e565b6040516102ed9190612139565b60405180910390f35b610310600480360381019061030b919061202a565b610717565b60405161031d9190612085565b60405180910390f35b61032e6107c1565b005b61034a60048036038101906103459190612180565b610847565b005b610366600480360381019061036191906121c0565b61091e565b005b610370610932565b60405161037d9190612085565b60405180910390f35b61038e610945565b005b6103986109e6565b6040516103a5919061224c565b60405180910390f35b6103b6610a0c565b6040516103c39190612085565b60405180910390f35b6103e660048036038101906103e19190612267565b610a23565b6040516103f391906120af565b60405180910390f35b610404610a6b565b005b610420600480360381019061041b9190612267565b610af3565b005b61043c6004803603810190610437919061202a565b610c22565b005b610446610c42565b005b610450610d18565b60405161045d91906122a3565b60405180910390f35b61046e610d42565b60405161047b9190611f6f565b60405180910390f35b61049e6004803603810190610499919061202a565b610dd4565b6040516104ab9190612085565b60405180910390f35b6104ce60048036038101906104c9919061202a565b610ebe565b6040516104db9190612085565b60405180910390f35b6104fe60048036038101906104f991906122be565b610ee1565b005b610508610f7a565b6040516105159190612085565b60405180910390f35b610526610f8d565b005b610542600480360381019061053d9190612267565b611076565b60405161054f9190612085565b60405180910390f35b610572600480360381019061056d9190612267565b611096565b60405161057f9190612085565b60405180910390f35b6105a2600480360381019061059d91906122eb565b6110b6565b6040516105af91906120af565b60405180910390f35b6105c061113d565b005b6105dc60048036038101906105d79190612267565b6111d6565b005b6105f860048036038101906105f39190612180565b6112cd565b005b6060600380546106099061235a565b80601f01602080910402602001604051908101604052809291908181526020018280546106359061235a565b80156106825780601f1061065757610100808354040283529160200191610682565b820191906000526020600020905b81548152906001019060200180831161066557829003601f168201915b5050505050905090565b6000806106976113a9565b90506106a48185856113b1565b600191505092915050565b600860169054906101000a900460ff1681565b6000600254905090565b6000806106d76113a9565b90506106e485828561157a565b6106ef858585611606565b60019150509392505050565b600860149054906101000a900460ff1681565b60006012905090565b6000806107226113a9565b90506107b6818585600160008673ffffffffffffffffffffffffffffffffffffffff1673ffffffffffffffffffffffffffffffffffffffff16815260200190815260200160002060008973ffffffffffffffffffffffffffffffffffffffff1673ffffffffffffffffffffffffffffffffffffffff168152602001908152602001600020546107b191906123ba565b6113b1565b600191505092915050565b6107c96113a9565b73ffffffffffffffffffffffffffffffffffffffff166107e7610d18565b73ffffffffffffffffffffffffffffffffffffffff161461083d576040517f08c379a00000000000000000000000000000000000000000000000000000000081526004016108349061245c565b60405180910390fd5b610845611885565b565b61084f6113a9565b73ffffffffffffffffffffffffffffffffffffffff1661086d610d18565b73ffffffffffffffffffffffffffffffffffffffff16146108c3576040517f08c379a00000000000000000000000000000000000000000000000000000000081526004016108ba9061245c565b60405180910390fd5b80600660008473ffffffffffffffffffffffffffffffffffffffff1673ffffffffffffffffffffffffffffffffffffffff16815260200190815260200160002060006101000a81548160ff0219169083151502179055505050565b61092f6109296113a9565b82611927565b50565b600860159054906101000a900460ff1681565b61094d6113a9565b73ffffffffffffffffffffffffffffffffffffffff1661096b610d18565b73ffffffffffffffffffffffffffffffffffffffff16146109c1576040517f08c379a00000000000000000000000000000000000000000000000000000000081526004016109b89061245c565b60405180910390fd5b6001600860176101000a81548160ff0219169083151502179055506109e4611885565b565b600860009054906101000a900473ffffffffffffffffffffffffffffffffffffffff1681565b6000600560009054906101000a900460ff16905090565b60008060008373ffffffffffffffffffffffffffffffffffffffff1673ffffffffffffffffffffffffffffffffffffffff168152602001908152602001600020549050919050565b610a736113a9565b73ffffffffffffffffffffffffffffffffffffffff16610a91610d18565b73ffffffffffffffffffffffffffffffffffffffff1614610ae7576040517f08c379a0000000000000000000000000000000000000000000000000000000008152600401610ade9061245c565b60405180910390fd5b610af16000611afd565b565b610afb6113a9565b73ffffffffffffffffffffffffffffffffffffffff16610b19610d18565b73ffffffffffffffffffffffffffffffffffffffff1614610b6f576040517f08c379a0000000000000000000000000000000000000000000000000000000008152600401610b669061245c565b60405180910390fd5b600073ffffffffffffffffffffffffffffffffffffffff168173ffffffffffffffffffffffffffffffffffffffff1603610bde576040517f08c379a0000000000000000000000000000000000000000000000000000000008152600401610bd5906124c8565b60405180910390fd5b80600860006101000a81548173ffffffffffffffffffffffffffffffffffffffff021916908373ffffffffffffffffffffffffffffffffffffffff16021790555050565b610c3482610c2e6113a9565b8361157a565b610c3e8282611927565b5050565b610c4a6113a9565b73ffffffffffffffffffffffffffffffffffffffff16610c68610d18565b73ffffffffffffffffffffffffffffffffffffffff1614610cbe576040517f08c379a0000000000000000000000000000000000000000000000000000000008152600401610cb59061245c565b60405180910390fd5b600860179054906101000a900460ff1615610d0e576040517f08c379a0000000000000000000000000000000000000000000000000000000008152600401610d0590612534565b60405180910390fd5b610d16611bc3565b565b6000600560019054906101000a900473ffffffffffffffffffffffffffffffffffffffff16905090565b606060048054610d519061235a565b80601f0160208091040260200160405190810160405280929190818152602001828054610d7d9061235a565b8015610dca5780601f10610d9f57610100808354040283529160200191610dca565b820191906000526020600020905b815481529060010190602001808311610dad57829003601f168201915b5050505050905090565b600080610ddf6113a9565b90506000600160008373ffffffffffffffffffffffffffffffffffffffff1673ffffffffffffffffffffffffffffffffffffffff16815260200190815260200160002060008673ffffffffffffffffffffffffffffffffffffffff1673ffffffffffffffffffffffffffffffffffffffff16815260200190815260200160002054905083811015610ea5576040517f08c379a0000000000000000000000000000000000000000000000000000000008152600401610e9c906125c6565b60405180910390fd5b610eb282868684036113b1565b60019250505092915050565b600080610ec96113a9565b9050610ed6818585611606565b600191505092915050565b610ee96113a9565b73ffffffffffffffffffffffffffffffffffffffff16610f07610d18565b73ffffffffffffffffffffffffffffffffffffffff1614610f5d576040517f08c379a0000000000000000000000000000000000000000000000000000000008152600401610f549061245c565b60405180910390fd5b80600860146101000a81548160ff02191690831515021790555050565b600860179054906101000a900460ff1681565b610f956113a9565b73ffffffffffffffffffffffffffffffffffffffff16610fb3610d18565b73ffffffffffffffffffffffffffffffffffffffff1614611009576040517f08c379a00000000000000000000000000000000000000000000000000000000081526004016110009061245c565b60405180910390fd5b600860159054906101000a900460ff1615611059576040517f08c379a000000000000000000000000000000000000000000000000000000000815260040161105090612632565b60405180910390fd5b6001600860156101000a81548160ff021916908315150217905550565b60076020528060005260406000206000915054906101000a900460ff1681565b60066020528060005260406000206000915054906101000a900460ff1681565b6000600160008473ffffffffffffffffffffffffffffffffffffffff1673ffffffffffffffffffffffffffffffffffffffff16815260200190815260200160002060008373ffffffffffffffffffffffffffffffffffffffff1673ffffffffffffffffffffffffffffffffffffffff16815260200190815260200160002054905092915050565b6111456113a9565b73ffffffffffffffffffffffffffffffffffffffff16611163610d18565b73ffffffffffffffffffffffffffffffffffffffff16146111b9576040517f08c379a00000000000000000000000000000000000000000000000000000000081526004016111b09061245c565b60405180910390fd5b6001600860166101000a81548160ff021916908315150217905550565b6111de6113a9565b73ffffffffffffffffffffffffffffffffffffffff166111fc610d18565b73ffffffffffffffffffffffffffffffffffffffff1614611252576040517f08c379a00000000000000000000000000000000000000000000000000000000081526004016112499061245c565b60405180910390fd5b600073ffffffffffffffffffffffffffffffffffffffff168173ffffffffffffffffffffffffffffffffffffffff16036112c1576040517f08c379a00000000000000000000000000000000000000000000000000000000081526004016112b8906126c4565b60405180910390fd5b6112ca81611afd565b50565b6112d56113a9565b73ffffffffffffffffffffffffffffffffffffffff166112f3610d18565b73ffffffffffffffffffffffffffffffffffffffff1614611349576040517f08c379a00000000000000000000000000000000000000000000000000000000081526004016113409061245c565b60405180910390fd5b80600760008473ffffffffffffffffffffffffffffffffffffffff1673ffffffffffffffffffffffffffffffffffffffff16815260200190815260200160002060006101000a81548160ff0219169083151502179055505050565b505050565b600033905090565b600073ffffffffffffffffffffffffffffffffffffffff168373ffffffffffffffffffffffffffffffffffffffff1603611420576040517f08c379a000000000000000000000000000000000000000000000000000000000815260040161141790612756565b60405180910390fd5b600073ffffffffffffffffffffffffffffffffffffffff168273ffffffffffffffffffffffffffffffffffffffff160361148f576040517f08c379a0000000000000000000000000000000000000000000000000000000008152600401611486906127e8565b60405180910390fd5b80600160008573ffffffffffffffffffffffffffffffffffffffff1673ffffffffffffffffffffffffffffffffffffffff16815260200190815260200160002060008473ffffffffffffffffffffffffffffffffffffffff1673ffffffffffffffffffffffffffffffffffffffff168152602001908152602001600020819055508173ffffffffffffffffffffffffffffffffffffffff168373ffffffffffffffffffffffffffffffffffffffff167f8c5be1e5ebec7d5bd14f71427d1e84f3dd0314c0f7b2291e5b200ac8c7c3b9258360405161156d91906120af565b60405180910390a3505050565b600061158684846110b6565b90507fffffffffffffffffffffffffffffffffffffffffffffffffffffffffffffffff811461160057818110156115f2576040517f08c379a00000000000000000000000000000000000000000000000000000000081526004016115e990612854565b60405180910390fd5b6115ff84848484036113b1565b5b50505050565b600073ffffffffffffffffffffffffffffffffffffffff168373ffffffffffffffffffffffffffffffffffffffff1603611675576040517f08c379a000000000000000000000000000000000000000000000000000000000815260040161166c906128e6565b60405180910390fd5b600073ffffffffffffffffffffffffffffffffffffffff168273ffffffffffffffffffffffffffffffffffffffff16036116e4576040517f08c379a00000000000000000000000000000000000000000000000000000000081526004016116db90612978565b60405180910390fd5b6116ef838383611c66565b60008060008573ffffffffffffffffffffffffffffffffffffffff1673ffffffffffffffffffffffffffffffffffffffff16815260200190815260200160002054905081811015611775576040517f08c379a000000000000000000000000000000000000000000000000000000000815260040161176c90612a0a565b60405180910390fd5b8181036000808673ffffffffffffffffffffffffffffffffffffffff1673ffffffffffffffffffffffffffffffffffffffff16815260200190815260200160002081905550816000808573ffffffffffffffffffffffffffffffffffffffff1673ffffffffffffffffffffffffffffffffffffffff168152602001908152602001600020600082825461180891906123ba565b925050819055508273ffffffffffffffffffffffffffffffffffffffff168473ffffffffffffffffffffffffffffffffffffffff167fddf252ad1be2c89b69c2b068fc378daa952ba7f163c4a11628f55a4df523b3ef8460405161186c91906120af565b60405180910390a361187f848484611ed1565b50505050565b61188d610a0c565b6118cc576040517f08c379a00000000000000000000000000000000000000000000000000000000081526004016118c390612a76565b60405180910390fd5b6000600560006101000a81548160ff0219169083151502179055507f5db9ee0a495bf2e6ff9c91a7834c1ba4fdd244a5e8aa4e537bd38aeae4b073aa6119106113a9565b60405161191d91906122a3565b60405180910390a1565b600073ffffffffffffffffffffffffffffffffffffffff168273ffffffffffffffffffffffffffffffffffffffff1603611996576040517f08c379a000000000000000000000000000000000000000000000000000000000815260040161198d90612b08565b60405180910390fd5b6119a282600083611c66565b60008060008473ffffffffffffffffffffffffffffffffffffffff1673ffffffffffffffffffffffffffffffffffffffff16815260200190815260200160002054905081811015611a28576040517f08c379a0000000000000000000000000000000000000000000000000000000008152600401611a1f90612b9a565b60405180910390fd5b8181036000808573ffffffffffffffffffffffffffffffffffffffff1673ffffffffffffffffffffffffffffffffffffffff168152602001908152602001600020819055508160026000828254611a7f9190612bba565b92505081905550600073ffffffffffffffffffffffffffffffffffffffff168373ffffffffffffffffffffffffffffffffffffffff167fddf252ad1be2c89b69c2b068fc378daa952ba7f163c4a11628f55a4df523b3ef84604051611ae491906120af565b60405180910390a3611af883600084611ed1565b505050565b6000600560019054906101000a900473ffffffffffffffffffffffffffffffffffffffff16905081600560016101000a81548173ffffffffffffffffffffffffffffffffffffffff021916908373ffffffffffffffffffffffffffffffffffffffff1602179055508173ffffffffffffffffffffffffffffffffffffffff168173ffffffffffffffffffffffffffffffffffffffff167f8be0079c531659141344cd1fd0a4f28419497f9722a3daafe3b4186f6b6457e060405160405180910390a35050565b611bcb610a0c565b15611c0b576040517f08c379a0000000000000000000000000000000000000000000000000000000008152600401611c0290612c3a565b60405180910390fd5b6001600560006101000a81548160ff0219169083151502179055507f62e78cea01bee320cd4e420270b5ea74000d11b0c9f74754ebdbfc544b05a258611c4f6113a9565b604051611c5c91906122a3565b60405180910390a1565b600860169054906101000a900460ff1680611d1f5750600660008473ffffffffffffffffffffffffffffffffffffffff1673ffffffffffffffffffffffffffffffffffffffff16815260200190815260200160002060009054906101000a900460ff1680611d1d5750600660008373ffffffffffffffffffffffffffffffffffffffff1673ffffffffffffffffffffffffffffffffffffffff16815260200190815260200160002060009054906101000a900460ff165b155b611d5e576040517f08c379a0000000000000000000000000000000000000000000000000000000008152600401611d5590612ca6565b60405180910390fd5b611d66610a0c565b1580611dc2575060076000611d796113a9565b73ffffffffffffffffffffffffffffffffffffffff1673ffffffffffffffffffffffffffffffffffffffff16815260200190815260200160002060009054906101000a900460ff165b611e01576040517f08c379a0000000000000000000000000000000000000000000000000000000008152600401611df890612d12565b60405180910390fd5b600860149054906101000a900460ff168015611e2a5750600860159054906101000a900460ff16155b15611ec157600860009054906101000a900473ffffffffffffffffffffffffffffffffffffffff1673ffffffffffffffffffffffffffffffffffffffff16637e2f3afd8484846040518463ffffffff1660e01b8152600401611e8e93929190612d32565b600060405180830381600087803b158015611ea857600080fd5b505af1158015611ebc573d6000803e3d6000fd5b505050505b611ecc8383836113a4565b505050565b505050565b600081519050919050565b600082825260208201905092915050565b60005b83811015611f10578082015181840152602081019050611ef5565b83811115611f1f576000848401525b50505050565b6000601f19601f8301169050919050565b6000611f4182611ed6565b611f4b8185611ee1565b9350611f5b818560208601611ef2565b611f6481611f25565b840191505092915050565b60006020820190508181036000830152611f898184611f36565b905092915050565b600080fd5b600073ffffffffffffffffffffffffffffffffffffffff82169050919050565b6000611fc182611f96565b9050919050565b611fd181611fb6565b8114611fdc57600080fd5b50565b600081359050611fee81611fc8565b92915050565b6000819050919050565b61200781611ff4565b811461201257600080fd5b50565b60008135905061202481611ffe565b92915050565b6000806040838503121561204157612040611f91565b5b600061204f85828601611fdf565b925050602061206085828601612015565b9150509250929050565b60008115159050919050565b61207f8161206a565b82525050565b600060208201905061209a6000830184612076565b92915050565b6120a981611ff4565b82525050565b60006020820190506120c460008301846120a0565b92915050565b6000806000606084860312156120e3576120e2611f91565b5b60006120f186828701611fdf565b935050602061210286828701611fdf565b925050604061211386828701612015565b9150509250925092565b600060ff82169050919050565b6121338161211d565b82525050565b600060208201905061214e600083018461212a565b92915050565b61215d8161206a565b811461216857600080fd5b50565b60008135905061217a81612154565b92915050565b6000806040838503121561219757612196611f91565b5b60006121a585828601611fdf565b92505060206121b68582860161216b565b9150509250929050565b6000602082840312156121d6576121d5611f91565b5b60006121e484828501612015565b91505092915050565b6000819050919050565b600061221261220d61220884611f96565b6121ed565b611f96565b9050919050565b6000612224826121f7565b9050919050565b600061223682612219565b9050919050565b6122468161222b565b82525050565b6000602082019050612261600083018461223d565b92915050565b60006020828403121561227d5761227c611f91565b5b600061228b84828501611fdf565b91505092915050565b61229d81611fb6565b82525050565b60006020820190506122b86000830184612294565b92915050565b6000602082840312156122d4576122d3611f91565b5b60006122e28482850161216b565b91505092915050565b6000806040838503121561230257612301611f91565b5b600061231085828601611fdf565b925050602061232185828601611fdf565b9150509250929050565b7f4e487b7100000000000000000000000000000000000000000000000000000000600052602260045260246000fd5b6000600282049050600182168061237257607f821691505b6020821081036123855761238461232b565b5b50919050565b7f4e487b7100000000000000000000000000000000000000000000000000000000600052601160045260246000fd5b60006123c582611ff4565b91506123d083611ff4565b9250827fffffffffffffffffffffffffffffffffffffffffffffffffffffffffffffffff038211156124055761240461238b565b5b828201905092915050565b7f4f776e61626c653a2063616c6c6572206973206e6f7420746865206f776e6572600082015250565b6000612446602083611ee1565b915061245182612410565b602082019050919050565b6000602082019050818103600083015261247581612439565b9050919050565b7f425020616464726573732063616e6e6f74206265203078300000000000000000600082015250565b60006124b2601883611ee1565b91506124bd8261247c565b602082019050919050565b600060208201905081810360008301526124e1816124a5565b9050919050565b7f5061757365207472616e736665722064697361626c6564000000000000000000600082015250565b600061251e601783611ee1565b9150612529826124e8565b602082019050919050565b6000602082019050818103600083015261254d81612511565b9050919050565b7f45524332303a2064656372656173656420616c6c6f77616e63652062656c6f7760008201527f207a65726f000000000000000000000000000000000000000000000000000000602082015250565b60006125b0602583611ee1565b91506125bb82612554565b604082019050919050565b600060208201905081810360008301526125df816125a3565b9050919050565b7f426f742070726f74656374696f6e2064697361626c6564000000000000000000600082015250565b600061261c601783611ee1565b9150612627826125e6565b602082019050919050565b6000602082019050818103600083015261264b8161260f565b9050919050565b7f4f776e61626c653a206e6577206f776e657220697320746865207a65726f206160008201527f6464726573730000000000000000000000000000000000000000000000000000602082015250565b60006126ae602683611ee1565b91506126b982612652565b604082019050919050565b600060208201905081810360008301526126dd816126a1565b9050919050565b7f45524332303a20617070726f76652066726f6d20746865207a65726f2061646460008201527f7265737300000000000000000000000000000000000000000000000000000000602082015250565b6000612740602483611ee1565b915061274b826126e4565b604082019050919050565b6000602082019050818103600083015261276f81612733565b9050919050565b7f45524332303a20617070726f766520746f20746865207a65726f20616464726560008201527f7373000000000000000000000000000000000000000000000000000000000000602082015250565b60006127d2602283611ee1565b91506127dd82612776565b604082019050919050565b60006020820190508181036000830152612801816127c5565b9050919050565b7f45524332303a20696e73756666696369656e7420616c6c6f77616e6365000000600082015250565b600061283e601d83611ee1565b915061284982612808565b602082019050919050565b6000602082019050818103600083015261286d81612831565b9050919050565b7f45524332303a207472616e736665722066726f6d20746865207a65726f20616460008201527f6472657373000000000000000000000000000000000000000000000000000000602082015250565b60006128d0602583611ee1565b91506128db82612874565b604082019050919050565b600060208201905081810360008301526128ff816128c3565b9050919050565b7f45524332303a207472616e7366657220746f20746865207a65726f206164647260008201527f6573730000000000000000000000000000000000000000000000000000000000602082015250565b6000612962602383611ee1565b915061296d82612906565b604082019050919050565b6000602082019050818103600083015261299181612955565b9050919050565b7f45524332303a207472616e7366657220616d6f756e742065786365656473206260008201527f616c616e63650000000000000000000000000000000000000000000000000000602082015250565b60006129f4602683611ee1565b91506129ff82612998565b604082019050919050565b60006020820190508181036000830152612a23816129e7565b9050919050565b7f5061757361626c653a206e6f7420706175736564000000000000000000000000600082015250565b6000612a60601483611ee1565b9150612a6b82612a2a565b602082019050919050565b60006020820190508181036000830152612a8f81612a53565b9050919050565b7f45524332303a206275726e2066726f6d20746865207a65726f2061646472657360008201527f7300000000000000000000000000000000000000000000000000000000000000602082015250565b6000612af2602183611ee1565b9150612afd82612a96565b604082019050919050565b60006020820190508181036000830152612b2181612ae5565b9050919050565b7f45524332303a206275726e20616d6f756e7420657863656564732062616c616e60008201527f6365000000000000000000000000000000000000000000000000000000000000602082015250565b6000612b84602283611ee1565b9150612b8f82612b28565b604082019050919050565b60006020820190508181036000830152612bb381612b77565b9050919050565b6000612bc582611ff4565b9150612bd083611ff4565b925082821015612be357612be261238b565b5b828203905092915050565b7f5061757361626c653a2070617573656400000000000000000000000000000000600082015250565b6000612c24601083611ee1565b9150612c2f82612bee565b602082019050919050565b60006020820190508181036000830152612c5381612c17565b9050919050565b7f5472616e7366657220626c61636b6c6973746564000000000000000000000000600082015250565b6000612c90601483611ee1565b9150612c9b82612c5a565b602082019050919050565b60006020820190508181036000830152612cbf81612c83565b9050919050565b7f5472616e73666572207061757365640000000000000000000000000000000000600082015250565b6000612cfc600f83611ee1565b9150612d0782612cc6565b602082019050919050565b60006020820190508181036000830152612d2b81612cef565b9050919050565b6000606082019050612d476000830186612294565b612d546020830185612294565b612d6160408301846120a0565b94935050505056fea26469706673582212201275225b963d67ffac9806a0c37ce3302741320e9b8f3480393f80393c329b7b64736f6c634300080d0033",
  "devdoc": {
    "kind": "dev",
    "methods": {
      "allowance(address,address)": {
        "details": "See {IERC20-allowance}."
      },
      "approve(address,uint256)": {
        "details": "See {IERC20-approve}. NOTE: If `amount` is the maximum `uint256`, the allowance is not updated on `transferFrom`. This is semantically equivalent to an infinite approval. Requirements: - `spender` cannot be the zero address."
      },
      "balanceOf(address)": {
        "details": "See {IERC20-balanceOf}."
      },
      "blacklist(address,bool)": {
        "details": "Blacklist user to prevent transfer Requirements: - the caller must be owner."
      },
      "burn(uint256)": {
        "details": "Destroys `amount` tokens from the caller. See {ERC20-_burn}."
      },
      "burnFrom(address,uint256)": {
        "details": "Destroys `amount` tokens from `account`, deducting from the caller's allowance. See {ERC20-_burn} and {ERC20-allowance}. Requirements: - the caller must have allowance for ``accounts``'s tokens of at least `amount`."
      },
      "decimals()": {
        "details": "Returns the number of decimals used to get its user representation. For example, if `decimals` equals `2`, a balance of `505` tokens should be displayed to a user as `5.05` (`505 / 10 ** 2`). Tokens usually opt for a value of 18, imitating the relationship between Ether and Wei. This is the value {ERC20} uses, unless this function is overridden; NOTE: This information is only used for _display_ purposes: it in no way affects any of the arithmetic of the contract, including {IERC20-balanceOf} and {IERC20-transfer}."
      },
      "decreaseAllowance(address,uint256)": {
        "details": "Atomically decreases the allowance granted to `spender` by the caller. This is an alternative to {approve} that can be used as a mitigation for problems described in {IERC20-approve}. Emits an {Approval} event indicating the updated allowance. Requirements: - `spender` cannot be the zero address. - `spender` must have allowance for the caller of at least `subtractedValue`."
      },
      "disableBlacklist()": {
        "details": "Disable blacklist function forever Requirements: - the caller must must be owner."
      },
      "disablePause()": {
        "details": "Pauses all token transfers. Requirements: - the caller must must be owner."
      },
      "increaseAllowance(address,uint256)": {
        "details": "Atomically increases the allowance granted to `spender` by the caller. This is an alternative to {approve} that can be used as a mitigation for problems described in {IERC20-approve}. Emits an {Approval} event indicating the updated allowance. Requirements: - `spender` cannot be the zero address."
      },
      "name()": {
        "details": "Returns the name of the token."
      },
      "owner()": {
        "details": "Returns the address of the current owner."
      },
      "pause()": {
        "details": "Pauses all token transfers. Requirements: - the caller must must be owner."
      },
      "paused()": {
        "details": "Returns true if the contract is paused, and false otherwise."
      },
      "renounceOwnership()": {
        "details": "Leaves the contract without owner. It will not be possible to call `onlyOwner` functions anymore. Can only be called by the current owner. NOTE: Renouncing ownership will leave the contract without an owner, thereby removing any functionality that is only available to the owner."
      },
      "symbol()": {
        "details": "Returns the symbol of the token, usually a shorter version of the name."
      },
      "totalSupply()": {
        "details": "See {IERC20-totalSupply}."
      },
      "transfer(address,uint256)": {
        "details": "See {IERC20-transfer}. Requirements: - `to` cannot be the zero address. - the caller must have a balance of at least `amount`."
      },
      "transferFrom(address,address,uint256)": {
        "details": "See {IERC20-transferFrom}. Emits an {Approval} event indicating the updated allowance. This is not required by the EIP. See the note at the beginning of {ERC20}. NOTE: Does not update the allowance if the current allowance is the maximum `uint256`. Requirements: - `from` and `to` cannot be the zero address. - `from` must have a balance of at least `amount`. - the caller must have allowance for ``from``'s tokens of at least `amount`."
      },
      "transferOwnership(address)": {
        "details": "Transfers ownership of the contract to a new account (`newOwner`). Can only be called by the current owner."
      },
      "unpause()": {
        "details": "Unpauses all token transfers. Requirements: - the caller must be owner."
      },
      "whitelist(address,bool)": {
        "details": "Whitelist user to allow transfer even when paused Requirements: - the caller must be owner."
      }
    },
    "version": 1
  },
  "userdoc": {
    "kind": "user",
    "methods": {},
    "version": 1
  },
  "storageLayout": {
    "storage": [
      {
        "astId": 212,
        "contract": "contracts/OKGToken.sol:OKGToken",
        "label": "_balances",
        "offset": 0,
        "slot": "0",
        "type": "t_mapping(t_address,t_uint256)"
      },
      {
        "astId": 218,
        "contract": "contracts/OKGToken.sol:OKGToken",
        "label": "_allowances",
        "offset": 0,
        "slot": "1",
        "type": "t_mapping(t_address,t_mapping(t_address,t_uint256))"
      },
      {
        "astId": 220,
        "contract": "contracts/OKGToken.sol:OKGToken",
        "label": "_totalSupply",
        "offset": 0,
        "slot": "2",
        "type": "t_uint256"
      },
      {
        "astId": 222,
        "contract": "contracts/OKGToken.sol:OKGToken",
        "label": "_name",
        "offset": 0,
        "slot": "3",
        "type": "t_string_storage"
      },
      {
        "astId": 224,
        "contract": "contracts/OKGToken.sol:OKGToken",
        "label": "_symbol",
        "offset": 0,
        "slot": "4",
        "type": "t_string_storage"
      },
      {
        "astId": 122,
        "contract": "contracts/OKGToken.sol:OKGToken",
        "label": "_paused",
        "offset": 0,
        "slot": "5",
        "type": "t_bool"
      },
      {
        "astId": 7,
        "contract": "contracts/OKGToken.sol:OKGToken",
        "label": "_owner",
        "offset": 1,
        "slot": "5",
        "type": "t_address"
      },
      {
        "astId": 978,
        "contract": "contracts/OKGToken.sol:OKGToken",
        "label": "blacklisted",
        "offset": 0,
        "slot": "6",
        "type": "t_mapping(t_address,t_bool)"
      },
      {
        "astId": 982,
        "contract": "contracts/OKGToken.sol:OKGToken",
        "label": "whitelisted",
        "offset": 0,
        "slot": "7",
        "type": "t_mapping(t_address,t_bool)"
      },
      {
        "astId": 985,
        "contract": "contracts/OKGToken.sol:OKGToken",
        "label": "bpContract",
        "offset": 0,
        "slot": "8",
        "type": "t_contract(IBPContract)968"
      },
      {
        "astId": 987,
        "contract": "contracts/OKGToken.sol:OKGToken",
        "label": "bpEnabled",
        "offset": 20,
        "slot": "8",
        "type": "t_bool"
      },
      {
        "astId": 989,
        "contract": "contracts/OKGToken.sol:OKGToken",
        "label": "bpDisabledForever",
        "offset": 21,
        "slot": "8",
        "type": "t_bool"
      },
      {
        "astId": 991,
        "contract": "contracts/OKGToken.sol:OKGToken",
        "label": "blackListedDisabled",
        "offset": 22,
        "slot": "8",
        "type": "t_bool"
      },
      {
        "astId": 993,
        "contract": "contracts/OKGToken.sol:OKGToken",
        "label": "pauseDisabled",
        "offset": 23,
        "slot": "8",
        "type": "t_bool"
      }
    ],
    "types": {
      "t_address": {
        "encoding": "inplace",
        "label": "address",
        "numberOfBytes": "20"
      },
      "t_bool": {
        "encoding": "inplace",
        "label": "bool",
        "numberOfBytes": "1"
      },
      "t_contract(IBPContract)968": {
        "encoding": "inplace",
        "label": "contract IBPContract",
        "numberOfBytes": "20"
      },
      "t_mapping(t_address,t_bool)": {
        "encoding": "mapping",
        "key": "t_address",
        "label": "mapping(address => bool)",
        "numberOfBytes": "32",
        "value": "t_bool"
      },
      "t_mapping(t_address,t_mapping(t_address,t_uint256))": {
        "encoding": "mapping",
        "key": "t_address",
        "label": "mapping(address => mapping(address => uint256))",
        "numberOfBytes": "32",
        "value": "t_mapping(t_address,t_uint256)"
      },
      "t_mapping(t_address,t_uint256)": {
        "encoding": "mapping",
        "key": "t_address",
        "label": "mapping(address => uint256)",
        "numberOfBytes": "32",
        "value": "t_uint256"
      },
      "t_string_storage": {
        "encoding": "bytes",
        "label": "string",
        "numberOfBytes": "32"
      },
      "t_uint256": {
        "encoding": "inplace",
        "label": "uint256",
        "numberOfBytes": "32"
      }
    }
  }
}