{
  "address": "0x948dD61Bb560Fc60C98AFc02C42B7bB60c98948F",
  "abi": [
    {
      "inputs": [
        {
          "internalType": "string",
          "name": "_name",
          "type": "string"
        },
        {
          "internalType": "string",
          "name": "_symbol",
          "type": "string"
        },
        {
          "internalType": "uint256",
          "name": "_initialSupply",
          "type": "uint256"
        }
      ],
      "stateMutability": "nonpayable",
      "type": "constructor"
    },
    {
      "anonymous": false,
      "inputs": [
        {
          "indexed": true,
          "internalType": "address",
          "name": "owner",
          "type": "address"
        },
        {
          "indexed": true,
          "internalType": "address",
          "name": "spender",
          "type": "address"
        },
        {
          "indexed": false,
          "internalType": "uint256",
          "name": "value",
          "type": "uint256"
        }
      ],
      "name": "Approval",
      "type": "event"
    },
    {
      "anonymous": false,
      "inputs": [
        {
          "indexed": true,
          "internalType": "address",
          "name": "previousOwner",
          "type": "address"
        },
        {
          "indexed": true,
          "internalType": "address",
          "name": "newOwner",
          "type": "address"
        }
      ],
      "name": "OwnershipTransferred",
      "type": "event"
    },
    {
      "anonymous": false,
      "inputs": [
        {
          "indexed": false,
          "internalType": "address",
          "name": "account",
          "type": "address"
        }
      ],
      "name": "Paused",
      "type": "event"
    },
    {
      "anonymous": false,
      "inputs": [
        {
          "indexed": true,
          "internalType": "address",
          "name": "from",
          "type": "address"
        },
        {
          "indexed": true,
          "internalType": "address",
          "name": "to",
          "type": "address"
        },
        {
          "indexed": false,
          "internalType": "uint256",
          "name": "value",
          "type": "uint256"
        }
      ],
      "name": "Transfer",
      "type": "event"
    },
    {
      "anonymous": false,
      "inputs": [
        {
          "indexed": false,
          "internalType": "address",
          "name": "account",
          "type": "address"
        }
      ],
      "name": "Unpaused",
      "type": "event"
    },
    {
      "inputs": [
        {
          "internalType": "address",
          "name": "owner",
          "type": "address"
        },
        {
          "internalType": "address",
          "name": "spender",
          "type": "address"
        }
      ],
      "name": "allowance",
      "outputs": [
        {
          "internalType": "uint256",
          "name": "",
          "type": "uint256"
        }
      ],
      "stateMutability": "view",
      "type": "function"
    },
    {
      "inputs": [
        {
          "internalType": "address",
          "name": "spender",
          "type": "address"
        },
        {
          "internalType": "uint256",
          "name": "amount",
          "type": "uint256"
        }
      ],
      "name": "approve",
      "outputs": [
        {
          "internalType": "bool",
          "name": "",
          "type": "bool"
        }
      ],
      "stateMutability": "nonpayable",
      "type": "function"
    },
    {
      "inputs": [
        {
          "internalType": "address",
          "name": "account",
          "type": "address"
        }
      ],
      "name": "balanceOf",
      "outputs": [
        {
          "internalType": "uint256",
          "name": "",
          "type": "uint256"
        }
      ],
      "stateMutability": "view",
      "type": "function"
    },
    {
      "inputs": [
        {
          "internalType": "address",
          "name": "_user",
          "type": "address"
        },
        {
          "internalType": "bool",
          "name": "_isBlacklisted",
          "type": "bool"
        }
      ],
      "name": "blacklist",
      "outputs": [],
      "stateMutability": "nonpayable",
      "type": "function"
    },
    {
      "inputs": [
        {
          "internalType": "address",
          "name": "",
          "type": "address"
        }
      ],
      "name": "blacklisted",
      "outputs": [
        {
          "internalType": "bool",
          "name": "",
          "type": "bool"
        }
      ],
      "stateMutability": "view",
      "type": "function"
    },
    {
      "inputs": [],
      "name": "bpContract",
      "outputs": [
        {
          "internalType": "contract IBPContract",
          "name": "",
          "type": "address"
        }
      ],
      "stateMutability": "view",
      "type": "function"
    },
    {
      "inputs": [],
      "name": "bpDisabledForever",
      "outputs": [
        {
          "internalType": "bool",
          "name": "",
          "type": "bool"
        }
      ],
      "stateMutability": "view",
      "type": "function"
    },
    {
      "inputs": [],
      "name": "bpEnabled",
      "outputs": [
        {
          "internalType": "bool",
          "name": "",
          "type": "bool"
        }
      ],
      "stateMutability": "view",
      "type": "function"
    },
    {
      "inputs": [
        {
          "internalType": "uint256",
          "name": "amount",
          "type": "uint256"
        }
      ],
      "name": "burn",
      "outputs": [],
      "stateMutability": "nonpayable",
      "type": "function"
    },
    {
      "inputs": [
        {
          "internalType": "address",
          "name": "account",
          "type": "address"
        },
        {
          "internalType": "uint256",
          "name": "amount",
          "type": "uint256"
        }
      ],
      "name": "burnFrom",
      "outputs": [],
      "stateMutability": "nonpayable",
      "type": "function"
    },
    {
      "inputs": [],
      "name": "decimals",
      "outputs": [
        {
          "internalType": "uint8",
          "name": "",
          "type": "uint8"
        }
      ],
      "stateMutability": "view",
      "type": "function"
    },
    {
      "inputs": [
        {
          "internalType": "address",
          "name": "spender",
          "type": "address"
        },
        {
          "internalType": "uint256",
          "name": "subtractedValue",
          "type": "uint256"
        }
      ],
      "name": "decreaseAllowance",
      "outputs": [
        {
          "internalType": "bool",
          "name": "",
          "type": "bool"
        }
      ],
      "stateMutability": "nonpayable",
      "type": "function"
    },
    {
      "inputs": [
        {
          "internalType": "address",
          "name": "spender",
          "type": "address"
        },
        {
          "internalType": "uint256",
          "name": "addedValue",
          "type": "uint256"
        }
      ],
      "name": "increaseAllowance",
      "outputs": [
        {
          "internalType": "bool",
          "name": "",
          "type": "bool"
        }
      ],
      "stateMutability": "nonpayable",
      "type": "function"
    },
    {
      "inputs": [
        {
          "internalType": "address",
          "name": "_to",
          "type": "address"
        },
        {
          "internalType": "uint256",
          "name": "_amount",
          "type": "uint256"
        }
      ],
      "name": "mint",
      "outputs": [],
      "stateMutability": "nonpayable",
      "type": "function"
    },
    {
      "inputs": [],
      "name": "name",
      "outputs": [
        {
          "internalType": "string",
          "name": "",
          "type": "string"
        }
      ],
      "stateMutability": "view",
      "type": "function"
    },
    {
      "inputs": [],
      "name": "owner",
      "outputs": [
        {
          "internalType": "address",
          "name": "",
          "type": "address"
        }
      ],
      "stateMutability": "view",
      "type": "function"
    },
    {
      "inputs": [],
      "name": "pause",
      "outputs": [],
      "stateMutability": "nonpayable",
      "type": "function"
    },
    {
      "inputs": [],
      "name": "paused",
      "outputs": [
        {
          "internalType": "bool",
          "name": "",
          "type": "bool"
        }
      ],
      "stateMutability": "view",
      "type": "function"
    },
    {
      "inputs": [],
      "name": "renounceOwnership",
      "outputs": [],
      "stateMutability": "nonpayable",
      "type": "function"
    },
    {
      "inputs": [
        {
          "internalType": "address",
          "name": "addr",
          "type": "address"
        }
      ],
      "name": "setBPContract",
      "outputs": [],
      "stateMutability": "nonpayable",
      "type": "function"
    },
    {
      "inputs": [],
      "name": "setBPDisableForever",
      "outputs": [],
      "stateMutability": "nonpayable",
      "type": "function"
    },
    {
      "inputs": [
        {
          "internalType": "bool",
          "name": "enabled",
          "type": "bool"
        }
      ],
      "name": "setBPEnabled",
      "outputs": [],
      "stateMutability": "nonpayable",
      "type": "function"
    },
    {
      "inputs": [],
      "name": "symbol",
      "outputs": [
        {
          "internalType": "string",
          "name": "",
          "type": "string"
        }
      ],
      "stateMutability": "view",
      "type": "function"
    },
    {
      "inputs": [],
      "name": "totalSupply",
      "outputs": [
        {
          "internalType": "uint256",
          "name": "",
          "type": "uint256"
        }
      ],
      "stateMutability": "view",
      "type": "function"
    },
    {
      "inputs": [
        {
          "internalType": "address",
          "name": "to",
          "type": "address"
        },
        {
          "internalType": "uint256",
          "name": "amount",
          "type": "uint256"
        }
      ],
      "name": "transfer",
      "outputs": [
        {
          "internalType": "bool",
          "name": "",
          "type": "bool"
        }
      ],
      "stateMutability": "nonpayable",
      "type": "function"
    },
    {
      "inputs": [
        {
          "internalType": "address",
          "name": "from",
          "type": "address"
        },
        {
          "internalType": "address",
          "name": "to",
          "type": "address"
        },
        {
          "internalType": "uint256",
          "name": "amount",
          "type": "uint256"
        }
      ],
      "name": "transferFrom",
      "outputs": [
        {
          "internalType": "bool",
          "name": "",
          "type": "bool"
        }
      ],
      "stateMutability": "nonpayable",
      "type": "function"
    },
    {
      "inputs": [
        {
          "internalType": "address",
          "name": "newOwner",
          "type": "address"
        }
      ],
      "name": "transferOwnership",
      "outputs": [],
      "stateMutability": "nonpayable",
      "type": "function"
    },
    {
      "inputs": [],
      "name": "unpause",
      "outputs": [],
      "stateMutability": "nonpayable",
      "type": "function"
    },
    {
      "inputs": [
        {
          "internalType": "address",
          "name": "_user",
          "type": "address"
        },
        {
          "internalType": "bool",
          "name": "_isWhitelisted",
          "type": "bool"
        }
      ],
      "name": "whitelist",
      "outputs": [],
      "stateMutability": "nonpayable",
      "type": "function"
    },
    {
      "inputs": [
        {
          "internalType": "address",
          "name": "",
          "type": "address"
        }
      ],
      "name": "whitelisted",
      "outputs": [
        {
          "internalType": "bool",
          "name": "",
          "type": "bool"
        }
      ],
      "stateMutability": "view",
      "type": "function"
    }
  ],
  "transactionHash": "0xf72131fa830c71b0b745853fb3fed0dcf734a11fdc12a8cd9b12e328f7d9a5b9",
  "args": [
    "Ookeenga",
    "OKG",
    "500000000000000000000000000"
  ],
  "numDeployments": 1,
  "solcInputHash": "10edb883d53bf4d6cfa64c627ff7d073",
  "bytecode": "0x60806040523480156200001157600080fd5b506040516200395d3803806200395d833981810160405281019062000037919062000840565b8282816003908051906020019062000051929190620005b8565b5080600490805190602001906200006a929190620005b8565b5050506000600560006101000a81548160ff021916908315150217905550620000a86200009c620000d260201b60201c565b620000da60201b60201c565b620000c9620000bc620000d260201b60201c565b82620001a060201b60201c565b50505062000be1565b600033905090565b6000600560019054906101000a900473ffffffffffffffffffffffffffffffffffffffff16905081600560016101000a81548173ffffffffffffffffffffffffffffffffffffffff021916908373ffffffffffffffffffffffffffffffffffffffff1602179055508173ffffffffffffffffffffffffffffffffffffffff168173ffffffffffffffffffffffffffffffffffffffff167f8be0079c531659141344cd1fd0a4f28419497f9722a3daafe3b4186f6b6457e060405160405180910390a35050565b600073ffffffffffffffffffffffffffffffffffffffff168273ffffffffffffffffffffffffffffffffffffffff160362000212576040517f08c379a000000000000000000000000000000000000000000000000000000000815260040162000209906200093b565b60405180910390fd5b62000226600083836200031860201b60201c565b80600260008282546200023a91906200098c565b92505081905550806000808473ffffffffffffffffffffffffffffffffffffffff1673ffffffffffffffffffffffffffffffffffffffff16815260200190815260200160002060008282546200029191906200098c565b925050819055508173ffffffffffffffffffffffffffffffffffffffff16600073ffffffffffffffffffffffffffffffffffffffff167fddf252ad1be2c89b69c2b068fc378daa952ba7f163c4a11628f55a4df523b3ef83604051620002f89190620009fa565b60405180910390a362000314600083836200059760201b60201c565b5050565b600660008473ffffffffffffffffffffffffffffffffffffffff1673ffffffffffffffffffffffffffffffffffffffff16815260200190815260200160002060009054906101000a900460ff1680620003ba5750600660008373ffffffffffffffffffffffffffffffffffffffff1673ffffffffffffffffffffffffffffffffffffffff16815260200190815260200160002060009054906101000a900460ff165b15620003fd576040517f08c379a0000000000000000000000000000000000000000000000000000000008152600401620003f49062000a67565b60405180910390fd5b6200040d6200059c60201b60201c565b15806200047257506007600062000429620000d260201b60201c565b73ffffffffffffffffffffffffffffffffffffffff1673ffffffffffffffffffffffffffffffffffffffff16815260200190815260200160002060009054906101000a900460ff165b620004b4576040517f08c379a0000000000000000000000000000000000000000000000000000000008152600401620004ab9062000ad9565b60405180910390fd5b600860149054906101000a900460ff168015620004de5750600860159054906101000a900460ff16155b156200057a57600860009054906101000a900473ffffffffffffffffffffffffffffffffffffffff1673ffffffffffffffffffffffffffffffffffffffff16637e2f3afd8484846040518463ffffffff1660e01b8152600401620005459392919062000b40565b600060405180830381600087803b1580156200056057600080fd5b505af115801562000575573d6000803e3d6000fd5b505050505b62000592838383620005b360201b620012291760201c565b505050565b505050565b6000600560009054906101000a900460ff16905090565b505050565b828054620005c69062000bac565b90600052602060002090601f016020900481019282620005ea576000855562000636565b82601f106200060557805160ff191683800117855562000636565b8280016001018555821562000636579182015b828111156200063557825182559160200191906001019062000618565b5b50905062000645919062000649565b5090565b5b80821115620006645760008160009055506001016200064a565b5090565b6000604051905090565b600080fd5b600080fd5b600080fd5b600080fd5b6000601f19601f8301169050919050565b7f4e487b7100000000000000000000000000000000000000000000000000000000600052604160045260246000fd5b620006d18262000686565b810181811067ffffffffffffffff82111715620006f357620006f262000697565b5b80604052505050565b60006200070862000668565b9050620007168282620006c6565b919050565b600067ffffffffffffffff82111562000739576200073862000697565b5b620007448262000686565b9050602081019050919050565b60005b838110156200077157808201518184015260208101905062000754565b8381111562000781576000848401525b50505050565b60006200079e62000798846200071b565b620006fc565b905082815260208101848484011115620007bd57620007bc62000681565b5b620007ca84828562000751565b509392505050565b600082601f830112620007ea57620007e96200067c565b5b8151620007fc84826020860162000787565b91505092915050565b6000819050919050565b6200081a8162000805565b81146200082657600080fd5b50565b6000815190506200083a816200080f565b92915050565b6000806000606084860312156200085c576200085b62000672565b5b600084015167ffffffffffffffff8111156200087d576200087c62000677565b5b6200088b86828701620007d2565b935050602084015167ffffffffffffffff811115620008af57620008ae62000677565b5b620008bd86828701620007d2565b9250506040620008d08682870162000829565b9150509250925092565b600082825260208201905092915050565b7f45524332303a206d696e7420746f20746865207a65726f206164647265737300600082015250565b600062000923601f83620008da565b91506200093082620008eb565b602082019050919050565b60006020820190508181036000830152620009568162000914565b9050919050565b7f4e487b7100000000000000000000000000000000000000000000000000000000600052601160045260246000fd5b6000620009998262000805565b9150620009a68362000805565b9250827fffffffffffffffffffffffffffffffffffffffffffffffffffffffffffffffff03821115620009de57620009dd6200095d565b5b828201905092915050565b620009f48162000805565b82525050565b600060208201905062000a116000830184620009e9565b92915050565b7f5472616e7366657220626c61636b6c6973746564000000000000000000000000600082015250565b600062000a4f601483620008da565b915062000a5c8262000a17565b602082019050919050565b6000602082019050818103600083015262000a828162000a40565b9050919050565b7f5472616e73666572207061757365640000000000000000000000000000000000600082015250565b600062000ac1600f83620008da565b915062000ace8262000a89565b602082019050919050565b6000602082019050818103600083015262000af48162000ab2565b9050919050565b600073ffffffffffffffffffffffffffffffffffffffff82169050919050565b600062000b288262000afb565b9050919050565b62000b3a8162000b1b565b82525050565b600060608201905062000b57600083018662000b2f565b62000b66602083018562000b2f565b62000b756040830184620009e9565b949350505050565b7f4e487b7100000000000000000000000000000000000000000000000000000000600052602260045260246000fd5b6000600282049050600182168062000bc557607f821691505b60208210810362000bdb5762000bda62000b7d565b5b50919050565b612d6c8062000bf16000396000f3fe608060405234801561001057600080fd5b50600436106101da5760003560e01c8063715018a611610104578063a9059cbb116100a2578063dbac26e911610071578063dbac26e91461050d578063dd62ed3e1461053d578063f2fde38b1461056d578063f59c370814610589576101da565b8063a9059cbb14610487578063af200252146104b7578063c17d2a06146104d3578063d936547e146104dd576101da565b80638456cb59116100de5780638456cb59146104115780638da5cb5b1461041b57806395d89b4114610439578063a457c2d714610457576101da565b8063715018a6146103cf57806378f74560146103d957806379cc6790146103f5576101da565b80633f4ba83a1161017c5780634aaee1121161014b5780634aaee1121461034557806359c00227146103635780635c975abb1461038157806370a082311461039f576101da565b80633f4ba83a146102e7578063404e5129146102f157806340c10f191461030d57806342966c6814610329576101da565b806323b872dd116101b857806323b872dd1461024b57806326898da91461027b578063313ce5671461029957806339509351146102b7576101da565b806306fdde03146101df578063095ea7b3146101fd57806318160ddd1461022d575b600080fd5b6101e76105a5565b6040516101f49190611f3c565b60405180910390f35b61021760048036038101906102129190611ff7565b610637565b6040516102249190612052565b60405180910390f35b61023561065a565b604051610242919061207c565b60405180910390f35b61026560048036038101906102609190612097565b610664565b6040516102729190612052565b60405180910390f35b610283610693565b6040516102909190612052565b60405180910390f35b6102a16106a6565b6040516102ae9190612106565b60405180910390f35b6102d160048036038101906102cc9190611ff7565b6106af565b6040516102de9190612052565b60405180910390f35b6102ef610759565b005b61030b6004803603810190610306919061214d565b6107df565b005b61032760048036038101906103229190611ff7565b6108b6565b005b610343600480360381019061033e919061218d565b610940565b005b61034d610954565b60405161035a9190612052565b60405180910390f35b61036b610967565b6040516103789190612219565b60405180910390f35b61038961098d565b6040516103969190612052565b60405180910390f35b6103b960048036038101906103b49190612234565b6109a4565b6040516103c6919061207c565b60405180910390f35b6103d76109ec565b005b6103f360048036038101906103ee9190612234565b610a74565b005b61040f600480360381019061040a9190611ff7565b610ba3565b005b610419610bc3565b005b610423610c49565b6040516104309190612270565b60405180910390f35b610441610c73565b60405161044e9190611f3c565b60405180910390f35b610471600480360381019061046c9190611ff7565b610d05565b60405161047e9190612052565b60405180910390f35b6104a1600480360381019061049c9190611ff7565b610def565b6040516104ae9190612052565b60405180910390f35b6104d160048036038101906104cc919061228b565b610e12565b005b6104db610eab565b005b6104f760048036038101906104f29190612234565b610f94565b6040516105049190612052565b60405180910390f35b61052760048036038101906105229190612234565b610fb4565b6040516105349190612052565b60405180910390f35b610557600480360381019061055291906122b8565b610fd4565b604051610564919061207c565b60405180910390f35b61058760048036038101906105829190612234565b61105b565b005b6105a3600480360381019061059e919061214d565b611152565b005b6060600380546105b490612327565b80601f01602080910402602001604051908101604052809291908181526020018280546105e090612327565b801561062d5780601f106106025761010080835404028352916020019161062d565b820191906000526020600020905b81548152906001019060200180831161061057829003601f168201915b5050505050905090565b60008061064261122e565b905061064f818585611236565b600191505092915050565b6000600254905090565b60008061066f61122e565b905061067c8582856113ff565b61068785858561148b565b60019150509392505050565b600860149054906101000a900460ff1681565b60006012905090565b6000806106ba61122e565b905061074e818585600160008673ffffffffffffffffffffffffffffffffffffffff1673ffffffffffffffffffffffffffffffffffffffff16815260200190815260200160002060008973ffffffffffffffffffffffffffffffffffffffff1673ffffffffffffffffffffffffffffffffffffffff168152602001908152602001600020546107499190612387565b611236565b600191505092915050565b61076161122e565b73ffffffffffffffffffffffffffffffffffffffff1661077f610c49565b73ffffffffffffffffffffffffffffffffffffffff16146107d5576040517f08c379a00000000000000000000000000000000000000000000000000000000081526004016107cc90612429565b60405180910390fd5b6107dd61170a565b565b6107e761122e565b73ffffffffffffffffffffffffffffffffffffffff16610805610c49565b73ffffffffffffffffffffffffffffffffffffffff161461085b576040517f08c379a000000000000000000000000000000000000000000000000000000000815260040161085290612429565b60405180910390fd5b80600660008473ffffffffffffffffffffffffffffffffffffffff1673ffffffffffffffffffffffffffffffffffffffff16815260200190815260200160002060006101000a81548160ff0219169083151502179055505050565b6108be61122e565b73ffffffffffffffffffffffffffffffffffffffff166108dc610c49565b73ffffffffffffffffffffffffffffffffffffffff1614610932576040517f08c379a000000000000000000000000000000000000000000000000000000000815260040161092990612429565b60405180910390fd5b61093c82826117ac565b5050565b61095161094b61122e565b8261190b565b50565b600860159054906101000a900460ff1681565b600860009054906101000a900473ffffffffffffffffffffffffffffffffffffffff1681565b6000600560009054906101000a900460ff16905090565b60008060008373ffffffffffffffffffffffffffffffffffffffff1673ffffffffffffffffffffffffffffffffffffffff168152602001908152602001600020549050919050565b6109f461122e565b73ffffffffffffffffffffffffffffffffffffffff16610a12610c49565b73ffffffffffffffffffffffffffffffffffffffff1614610a68576040517f08c379a0000000000000000000000000000000000000000000000000000000008152600401610a5f90612429565b60405180910390fd5b610a726000611ae1565b565b610a7c61122e565b73ffffffffffffffffffffffffffffffffffffffff16610a9a610c49565b73ffffffffffffffffffffffffffffffffffffffff1614610af0576040517f08c379a0000000000000000000000000000000000000000000000000000000008152600401610ae790612429565b60405180910390fd5b600073ffffffffffffffffffffffffffffffffffffffff168173ffffffffffffffffffffffffffffffffffffffff1603610b5f576040517f08c379a0000000000000000000000000000000000000000000000000000000008152600401610b5690612495565b60405180910390fd5b80600860006101000a81548173ffffffffffffffffffffffffffffffffffffffff021916908373ffffffffffffffffffffffffffffffffffffffff16021790555050565b610bb582610baf61122e565b836113ff565b610bbf828261190b565b5050565b610bcb61122e565b73ffffffffffffffffffffffffffffffffffffffff16610be9610c49565b73ffffffffffffffffffffffffffffffffffffffff1614610c3f576040517f08c379a0000000000000000000000000000000000000000000000000000000008152600401610c3690612429565b60405180910390fd5b610c47611ba7565b565b6000600560019054906101000a900473ffffffffffffffffffffffffffffffffffffffff16905090565b606060048054610c8290612327565b80601f0160208091040260200160405190810160405280929190818152602001828054610cae90612327565b8015610cfb5780601f10610cd057610100808354040283529160200191610cfb565b820191906000526020600020905b815481529060010190602001808311610cde57829003601f168201915b5050505050905090565b600080610d1061122e565b90506000600160008373ffffffffffffffffffffffffffffffffffffffff1673ffffffffffffffffffffffffffffffffffffffff16815260200190815260200160002060008673ffffffffffffffffffffffffffffffffffffffff1673ffffffffffffffffffffffffffffffffffffffff16815260200190815260200160002054905083811015610dd6576040517f08c379a0000000000000000000000000000000000000000000000000000000008152600401610dcd90612527565b60405180910390fd5b610de38286868403611236565b60019250505092915050565b600080610dfa61122e565b9050610e0781858561148b565b600191505092915050565b610e1a61122e565b73ffffffffffffffffffffffffffffffffffffffff16610e38610c49565b73ffffffffffffffffffffffffffffffffffffffff1614610e8e576040517f08c379a0000000000000000000000000000000000000000000000000000000008152600401610e8590612429565b60405180910390fd5b80600860146101000a81548160ff02191690831515021790555050565b610eb361122e565b73ffffffffffffffffffffffffffffffffffffffff16610ed1610c49565b73ffffffffffffffffffffffffffffffffffffffff1614610f27576040517f08c379a0000000000000000000000000000000000000000000000000000000008152600401610f1e90612429565b60405180910390fd5b600860159054906101000a900460ff1615610f77576040517f08c379a0000000000000000000000000000000000000000000000000000000008152600401610f6e90612593565b60405180910390fd5b6001600860156101000a81548160ff021916908315150217905550565b60076020528060005260406000206000915054906101000a900460ff1681565b60066020528060005260406000206000915054906101000a900460ff1681565b6000600160008473ffffffffffffffffffffffffffffffffffffffff1673ffffffffffffffffffffffffffffffffffffffff16815260200190815260200160002060008373ffffffffffffffffffffffffffffffffffffffff1673ffffffffffffffffffffffffffffffffffffffff16815260200190815260200160002054905092915050565b61106361122e565b73ffffffffffffffffffffffffffffffffffffffff16611081610c49565b73ffffffffffffffffffffffffffffffffffffffff16146110d7576040517f08c379a00000000000000000000000000000000000000000000000000000000081526004016110ce90612429565b60405180910390fd5b600073ffffffffffffffffffffffffffffffffffffffff168173ffffffffffffffffffffffffffffffffffffffff1603611146576040517f08c379a000000000000000000000000000000000000000000000000000000000815260040161113d90612625565b60405180910390fd5b61114f81611ae1565b50565b61115a61122e565b73ffffffffffffffffffffffffffffffffffffffff16611178610c49565b73ffffffffffffffffffffffffffffffffffffffff16146111ce576040517f08c379a00000000000000000000000000000000000000000000000000000000081526004016111c590612429565b60405180910390fd5b80600760008473ffffffffffffffffffffffffffffffffffffffff1673ffffffffffffffffffffffffffffffffffffffff16815260200190815260200160002060006101000a81548160ff0219169083151502179055505050565b505050565b600033905090565b600073ffffffffffffffffffffffffffffffffffffffff168373ffffffffffffffffffffffffffffffffffffffff16036112a5576040517f08c379a000000000000000000000000000000000000000000000000000000000815260040161129c906126b7565b60405180910390fd5b600073ffffffffffffffffffffffffffffffffffffffff168273ffffffffffffffffffffffffffffffffffffffff1603611314576040517f08c379a000000000000000000000000000000000000000000000000000000000815260040161130b90612749565b60405180910390fd5b80600160008573ffffffffffffffffffffffffffffffffffffffff1673ffffffffffffffffffffffffffffffffffffffff16815260200190815260200160002060008473ffffffffffffffffffffffffffffffffffffffff1673ffffffffffffffffffffffffffffffffffffffff168152602001908152602001600020819055508173ffffffffffffffffffffffffffffffffffffffff168373ffffffffffffffffffffffffffffffffffffffff167f8c5be1e5ebec7d5bd14f71427d1e84f3dd0314c0f7b2291e5b200ac8c7c3b925836040516113f2919061207c565b60405180910390a3505050565b600061140b8484610fd4565b90507fffffffffffffffffffffffffffffffffffffffffffffffffffffffffffffffff81146114855781811015611477576040517f08c379a000000000000000000000000000000000000000000000000000000000815260040161146e906127b5565b60405180910390fd5b6114848484848403611236565b5b50505050565b600073ffffffffffffffffffffffffffffffffffffffff168373ffffffffffffffffffffffffffffffffffffffff16036114fa576040517f08c379a00000000000000000000000000000000000000000000000000000000081526004016114f190612847565b60405180910390fd5b600073ffffffffffffffffffffffffffffffffffffffff168273ffffffffffffffffffffffffffffffffffffffff1603611569576040517f08c379a0000000000000000000000000000000000000000000000000000000008152600401611560906128d9565b60405180910390fd5b611574838383611c4a565b60008060008573ffffffffffffffffffffffffffffffffffffffff1673ffffffffffffffffffffffffffffffffffffffff168152602001908152602001600020549050818110156115fa576040517f08c379a00000000000000000000000000000000000000000000000000000000081526004016115f19061296b565b60405180910390fd5b8181036000808673ffffffffffffffffffffffffffffffffffffffff1673ffffffffffffffffffffffffffffffffffffffff16815260200190815260200160002081905550816000808573ffffffffffffffffffffffffffffffffffffffff1673ffffffffffffffffffffffffffffffffffffffff168152602001908152602001600020600082825461168d9190612387565b925050819055508273ffffffffffffffffffffffffffffffffffffffff168473ffffffffffffffffffffffffffffffffffffffff167fddf252ad1be2c89b69c2b068fc378daa952ba7f163c4a11628f55a4df523b3ef846040516116f1919061207c565b60405180910390a3611704848484611e9e565b50505050565b61171261098d565b611751576040517f08c379a0000000000000000000000000000000000000000000000000000000008152600401611748906129d7565b60405180910390fd5b6000600560006101000a81548160ff0219169083151502179055507f5db9ee0a495bf2e6ff9c91a7834c1ba4fdd244a5e8aa4e537bd38aeae4b073aa61179561122e565b6040516117a29190612270565b60405180910390a1565b600073ffffffffffffffffffffffffffffffffffffffff168273ffffffffffffffffffffffffffffffffffffffff160361181b576040517f08c379a000000000000000000000000000000000000000000000000000000000815260040161181290612a43565b60405180910390fd5b61182760008383611c4a565b80600260008282546118399190612387565b92505081905550806000808473ffffffffffffffffffffffffffffffffffffffff1673ffffffffffffffffffffffffffffffffffffffff168152602001908152602001600020600082825461188e9190612387565b925050819055508173ffffffffffffffffffffffffffffffffffffffff16600073ffffffffffffffffffffffffffffffffffffffff167fddf252ad1be2c89b69c2b068fc378daa952ba7f163c4a11628f55a4df523b3ef836040516118f3919061207c565b60405180910390a361190760008383611e9e565b5050565b600073ffffffffffffffffffffffffffffffffffffffff168273ffffffffffffffffffffffffffffffffffffffff160361197a576040517f08c379a000000000000000000000000000000000000000000000000000000000815260040161197190612ad5565b60405180910390fd5b61198682600083611c4a565b60008060008473ffffffffffffffffffffffffffffffffffffffff1673ffffffffffffffffffffffffffffffffffffffff16815260200190815260200160002054905081811015611a0c576040517f08c379a0000000000000000000000000000000000000000000000000000000008152600401611a0390612b67565b60405180910390fd5b8181036000808573ffffffffffffffffffffffffffffffffffffffff1673ffffffffffffffffffffffffffffffffffffffff168152602001908152602001600020819055508160026000828254611a639190612b87565b92505081905550600073ffffffffffffffffffffffffffffffffffffffff168373ffffffffffffffffffffffffffffffffffffffff167fddf252ad1be2c89b69c2b068fc378daa952ba7f163c4a11628f55a4df523b3ef84604051611ac8919061207c565b60405180910390a3611adc83600084611e9e565b505050565b6000600560019054906101000a900473ffffffffffffffffffffffffffffffffffffffff16905081600560016101000a81548173ffffffffffffffffffffffffffffffffffffffff021916908373ffffffffffffffffffffffffffffffffffffffff1602179055508173ffffffffffffffffffffffffffffffffffffffff168173ffffffffffffffffffffffffffffffffffffffff167f8be0079c531659141344cd1fd0a4f28419497f9722a3daafe3b4186f6b6457e060405160405180910390a35050565b611baf61098d565b15611bef576040517f08c379a0000000000000000000000000000000000000000000000000000000008152600401611be690612c07565b60405180910390fd5b6001600560006101000a81548160ff0219169083151502179055507f62e78cea01bee320cd4e420270b5ea74000d11b0c9f74754ebdbfc544b05a258611c3361122e565b604051611c409190612270565b60405180910390a1565b600660008473ffffffffffffffffffffffffffffffffffffffff1673ffffffffffffffffffffffffffffffffffffffff16815260200190815260200160002060009054906101000a900460ff1680611ceb5750600660008373ffffffffffffffffffffffffffffffffffffffff1673ffffffffffffffffffffffffffffffffffffffff16815260200190815260200160002060009054906101000a900460ff165b15611d2b576040517f08c379a0000000000000000000000000000000000000000000000000000000008152600401611d2290612c73565b60405180910390fd5b611d3361098d565b1580611d8f575060076000611d4661122e565b73ffffffffffffffffffffffffffffffffffffffff1673ffffffffffffffffffffffffffffffffffffffff16815260200190815260200160002060009054906101000a900460ff165b611dce576040517f08c379a0000000000000000000000000000000000000000000000000000000008152600401611dc590612cdf565b60405180910390fd5b600860149054906101000a900460ff168015611df75750600860159054906101000a900460ff16155b15611e8e57600860009054906101000a900473ffffffffffffffffffffffffffffffffffffffff1673ffffffffffffffffffffffffffffffffffffffff16637e2f3afd8484846040518463ffffffff1660e01b8152600401611e5b93929190612cff565b600060405180830381600087803b158015611e7557600080fd5b505af1158015611e89573d6000803e3d6000fd5b505050505b611e99838383611229565b505050565b505050565b600081519050919050565b600082825260208201905092915050565b60005b83811015611edd578082015181840152602081019050611ec2565b83811115611eec576000848401525b50505050565b6000601f19601f8301169050919050565b6000611f0e82611ea3565b611f188185611eae565b9350611f28818560208601611ebf565b611f3181611ef2565b840191505092915050565b60006020820190508181036000830152611f568184611f03565b905092915050565b600080fd5b600073ffffffffffffffffffffffffffffffffffffffff82169050919050565b6000611f8e82611f63565b9050919050565b611f9e81611f83565b8114611fa957600080fd5b50565b600081359050611fbb81611f95565b92915050565b6000819050919050565b611fd481611fc1565b8114611fdf57600080fd5b50565b600081359050611ff181611fcb565b92915050565b6000806040838503121561200e5761200d611f5e565b5b600061201c85828601611fac565b925050602061202d85828601611fe2565b9150509250929050565b60008115159050919050565b61204c81612037565b82525050565b60006020820190506120676000830184612043565b92915050565b61207681611fc1565b82525050565b6000602082019050612091600083018461206d565b92915050565b6000806000606084860312156120b0576120af611f5e565b5b60006120be86828701611fac565b93505060206120cf86828701611fac565b92505060406120e086828701611fe2565b9150509250925092565b600060ff82169050919050565b612100816120ea565b82525050565b600060208201905061211b60008301846120f7565b92915050565b61212a81612037565b811461213557600080fd5b50565b60008135905061214781612121565b92915050565b6000806040838503121561216457612163611f5e565b5b600061217285828601611fac565b925050602061218385828601612138565b9150509250929050565b6000602082840312156121a3576121a2611f5e565b5b60006121b184828501611fe2565b91505092915050565b6000819050919050565b60006121df6121da6121d584611f63565b6121ba565b611f63565b9050919050565b60006121f1826121c4565b9050919050565b6000612203826121e6565b9050919050565b612213816121f8565b82525050565b600060208201905061222e600083018461220a565b92915050565b60006020828403121561224a57612249611f5e565b5b600061225884828501611fac565b91505092915050565b61226a81611f83565b82525050565b60006020820190506122856000830184612261565b92915050565b6000602082840312156122a1576122a0611f5e565b5b60006122af84828501612138565b91505092915050565b600080604083850312156122cf576122ce611f5e565b5b60006122dd85828601611fac565b92505060206122ee85828601611fac565b9150509250929050565b7f4e487b7100000000000000000000000000000000000000000000000000000000600052602260045260246000fd5b6000600282049050600182168061233f57607f821691505b602082108103612352576123516122f8565b5b50919050565b7f4e487b7100000000000000000000000000000000000000000000000000000000600052601160045260246000fd5b600061239282611fc1565b915061239d83611fc1565b9250827fffffffffffffffffffffffffffffffffffffffffffffffffffffffffffffffff038211156123d2576123d1612358565b5b828201905092915050565b7f4f776e61626c653a2063616c6c6572206973206e6f7420746865206f776e6572600082015250565b6000612413602083611eae565b915061241e826123dd565b602082019050919050565b6000602082019050818103600083015261244281612406565b9050919050565b7f425020616464726573732063616e6e6f74206265203078300000000000000000600082015250565b600061247f601883611eae565b915061248a82612449565b602082019050919050565b600060208201905081810360008301526124ae81612472565b9050919050565b7f45524332303a2064656372656173656420616c6c6f77616e63652062656c6f7760008201527f207a65726f000000000000000000000000000000000000000000000000000000602082015250565b6000612511602583611eae565b915061251c826124b5565b604082019050919050565b6000602082019050818103600083015261254081612504565b9050919050565b7f426f742070726f74656374696f6e2064697361626c6564000000000000000000600082015250565b600061257d601783611eae565b915061258882612547565b602082019050919050565b600060208201905081810360008301526125ac81612570565b9050919050565b7f4f776e61626c653a206e6577206f776e657220697320746865207a65726f206160008201527f6464726573730000000000000000000000000000000000000000000000000000602082015250565b600061260f602683611eae565b915061261a826125b3565b604082019050919050565b6000602082019050818103600083015261263e81612602565b9050919050565b7f45524332303a20617070726f76652066726f6d20746865207a65726f2061646460008201527f7265737300000000000000000000000000000000000000000000000000000000602082015250565b60006126a1602483611eae565b91506126ac82612645565b604082019050919050565b600060208201905081810360008301526126d081612694565b9050919050565b7f45524332303a20617070726f766520746f20746865207a65726f20616464726560008201527f7373000000000000000000000000000000000000000000000000000000000000602082015250565b6000612733602283611eae565b915061273e826126d7565b604082019050919050565b6000602082019050818103600083015261276281612726565b9050919050565b7f45524332303a20696e73756666696369656e7420616c6c6f77616e6365000000600082015250565b600061279f601d83611eae565b91506127aa82612769565b602082019050919050565b600060208201905081810360008301526127ce81612792565b9050919050565b7f45524332303a207472616e736665722066726f6d20746865207a65726f20616460008201527f6472657373000000000000000000000000000000000000000000000000000000602082015250565b6000612831602583611eae565b915061283c826127d5565b604082019050919050565b6000602082019050818103600083015261286081612824565b9050919050565b7f45524332303a207472616e7366657220746f20746865207a65726f206164647260008201527f6573730000000000000000000000000000000000000000000000000000000000602082015250565b60006128c3602383611eae565b91506128ce82612867565b604082019050919050565b600060208201905081810360008301526128f2816128b6565b9050919050565b7f45524332303a207472616e7366657220616d6f756e742065786365656473206260008201527f616c616e63650000000000000000000000000000000000000000000000000000602082015250565b6000612955602683611eae565b9150612960826128f9565b604082019050919050565b6000602082019050818103600083015261298481612948565b9050919050565b7f5061757361626c653a206e6f7420706175736564000000000000000000000000600082015250565b60006129c1601483611eae565b91506129cc8261298b565b602082019050919050565b600060208201905081810360008301526129f0816129b4565b9050919050565b7f45524332303a206d696e7420746f20746865207a65726f206164647265737300600082015250565b6000612a2d601f83611eae565b9150612a38826129f7565b602082019050919050565b60006020820190508181036000830152612a5c81612a20565b9050919050565b7f45524332303a206275726e2066726f6d20746865207a65726f2061646472657360008201527f7300000000000000000000000000000000000000000000000000000000000000602082015250565b6000612abf602183611eae565b9150612aca82612a63565b604082019050919050565b60006020820190508181036000830152612aee81612ab2565b9050919050565b7f45524332303a206275726e20616d6f756e7420657863656564732062616c616e60008201527f6365000000000000000000000000000000000000000000000000000000000000602082015250565b6000612b51602283611eae565b9150612b5c82612af5565b604082019050919050565b60006020820190508181036000830152612b8081612b44565b9050919050565b6000612b9282611fc1565b9150612b9d83611fc1565b925082821015612bb057612baf612358565b5b828203905092915050565b7f5061757361626c653a2070617573656400000000000000000000000000000000600082015250565b6000612bf1601083611eae565b9150612bfc82612bbb565b602082019050919050565b60006020820190508181036000830152612c2081612be4565b9050919050565b7f5472616e7366657220626c61636b6c6973746564000000000000000000000000600082015250565b6000612c5d601483611eae565b9150612c6882612c27565b602082019050919050565b60006020820190508181036000830152612c8c81612c50565b9050919050565b7f5472616e73666572207061757365640000000000000000000000000000000000600082015250565b6000612cc9600f83611eae565b9150612cd482612c93565b602082019050919050565b60006020820190508181036000830152612cf881612cbc565b9050919050565b6000606082019050612d146000830186612261565b612d216020830185612261565b612d2e604083018461206d565b94935050505056fea26469706673582212206eee1624fbeeb68c2cf9639a6d05bf9b9fb4fc0c403dca2af1c065967e95be0b64736f6c634300080d0033",
  "devdoc": {
    "kind": "dev",
    "methods": {
      "allowance(address,address)": {
        "details": "See {IERC20-allowance}."
      },
      "approve(address,uint256)": {
        "details": "See {IERC20-approve}. NOTE: If `amount` is the maximum `uint256`, the allowance is not updated on `transferFrom`. This is semantically equivalent to an infinite approval. Requirements: - `spender` cannot be the zero address."
      },
      "balanceOf(address)": {
        "details": "See {IERC20-balanceOf}."
      },
      "blacklist(address,bool)": {
        "details": "Blacklist user to prevent transfer Requirements: - the caller must be owner."
      },
      "burn(uint256)": {
        "details": "Destroys `amount` tokens from the caller. See {ERC20-_burn}."
      },
      "burnFrom(address,uint256)": {
        "details": "Destroys `amount` tokens from `account`, deducting from the caller's allowance. See {ERC20-_burn} and {ERC20-allowance}. Requirements: - the caller must have allowance for ``accounts``'s tokens of at least `amount`."
      },
      "decimals()": {
        "details": "Returns the number of decimals used to get its user representation. For example, if `decimals` equals `2`, a balance of `505` tokens should be displayed to a user as `5.05` (`505 / 10 ** 2`). Tokens usually opt for a value of 18, imitating the relationship between Ether and Wei. This is the value {ERC20} uses, unless this function is overridden; NOTE: This information is only used for _display_ purposes: it in no way affects any of the arithmetic of the contract, including {IERC20-balanceOf} and {IERC20-transfer}."
      },
      "decreaseAllowance(address,uint256)": {
        "details": "Atomically decreases the allowance granted to `spender` by the caller. This is an alternative to {approve} that can be used as a mitigation for problems described in {IERC20-approve}. Emits an {Approval} event indicating the updated allowance. Requirements: - `spender` cannot be the zero address. - `spender` must have allowance for the caller of at least `subtractedValue`."
      },
      "increaseAllowance(address,uint256)": {
        "details": "Atomically increases the allowance granted to `spender` by the caller. This is an alternative to {approve} that can be used as a mitigation for problems described in {IERC20-approve}. Emits an {Approval} event indicating the updated allowance. Requirements: - `spender` cannot be the zero address."
      },
      "name()": {
        "details": "Returns the name of the token."
      },
      "owner()": {
        "details": "Returns the address of the current owner."
      },
      "pause()": {
        "details": "Pauses all token transfers. Requirements: - the caller must must be owner."
      },
      "paused()": {
        "details": "Returns true if the contract is paused, and false otherwise."
      },
      "renounceOwnership()": {
        "details": "Leaves the contract without owner. It will not be possible to call `onlyOwner` functions anymore. Can only be called by the current owner. NOTE: Renouncing ownership will leave the contract without an owner, thereby removing any functionality that is only available to the owner."
      },
      "symbol()": {
        "details": "Returns the symbol of the token, usually a shorter version of the name."
      },
      "totalSupply()": {
        "details": "See {IERC20-totalSupply}."
      },
      "transfer(address,uint256)": {
        "details": "See {IERC20-transfer}. Requirements: - `to` cannot be the zero address. - the caller must have a balance of at least `amount`."
      },
      "transferFrom(address,address,uint256)": {
        "details": "See {IERC20-transferFrom}. Emits an {Approval} event indicating the updated allowance. This is not required by the EIP. See the note at the beginning of {ERC20}. NOTE: Does not update the allowance if the current allowance is the maximum `uint256`. Requirements: - `from` and `to` cannot be the zero address. - `from` must have a balance of at least `amount`. - the caller must have allowance for ``from``'s tokens of at least `amount`."
      },
      "transferOwnership(address)": {
        "details": "Transfers ownership of the contract to a new account (`newOwner`). Can only be called by the current owner."
      },
      "unpause()": {
        "details": "Unpauses all token transfers. Requirements: - the caller must be owner."
      },
      "whitelist(address,bool)": {
        "details": "Whitelist user to allow transfer even when paused Requirements: - the caller must be owner."
      }
    },
    "version": 1
  },
  "userdoc": {
    "kind": "user",
    "methods": {},
    "version": 1
  },
  "storageLayout": {
    "storage": [
      {
        "astId": 252,
        "contract": "contracts/OKGToken.sol:OKGToken",
        "label": "_balances",
        "offset": 0,
        "slot": "0",
        "type": "t_mapping(t_address,t_uint256)"
      },
      {
        "astId": 258,
        "contract": "contracts/OKGToken.sol:OKGToken",
        "label": "_allowances",
        "offset": 0,
        "slot": "1",
        "type": "t_mapping(t_address,t_mapping(t_address,t_uint256))"
      },
      {
        "astId": 260,
        "contract": "contracts/OKGToken.sol:OKGToken",
        "label": "_totalSupply",
        "offset": 0,
        "slot": "2",
        "type": "t_uint256"
      },
      {
        "astId": 262,
        "contract": "contracts/OKGToken.sol:OKGToken",
        "label": "_name",
        "offset": 0,
        "slot": "3",
        "type": "t_string_storage"
      },
      {
        "astId": 264,
        "contract": "contracts/OKGToken.sol:OKGToken",
        "label": "_symbol",
        "offset": 0,
        "slot": "4",
        "type": "t_string_storage"
      },
      {
        "astId": 122,
        "contract": "contracts/OKGToken.sol:OKGToken",
        "label": "_paused",
        "offset": 0,
        "slot": "5",
        "type": "t_bool"
      },
      {
        "astId": 7,
        "contract": "contracts/OKGToken.sol:OKGToken",
        "label": "_owner",
        "offset": 1,
        "slot": "5",
        "type": "t_address"
      },
      {
        "astId": 1567,
        "contract": "contracts/OKGToken.sol:OKGToken",
        "label": "blacklisted",
        "offset": 0,
        "slot": "6",
        "type": "t_mapping(t_address,t_bool)"
      },
      {
        "astId": 1571,
        "contract": "contracts/OKGToken.sol:OKGToken",
        "label": "whitelisted",
        "offset": 0,
        "slot": "7",
        "type": "t_mapping(t_address,t_bool)"
      },
      {
        "astId": 1574,
        "contract": "contracts/OKGToken.sol:OKGToken",
        "label": "bpContract",
        "offset": 0,
        "slot": "8",
        "type": "t_contract(IBPContract)1557"
      },
      {
        "astId": 1576,
        "contract": "contracts/OKGToken.sol:OKGToken",
        "label": "bpEnabled",
        "offset": 20,
        "slot": "8",
        "type": "t_bool"
      },
      {
        "astId": 1578,
        "contract": "contracts/OKGToken.sol:OKGToken",
        "label": "bpDisabledForever",
        "offset": 21,
        "slot": "8",
        "type": "t_bool"
      }
    ],
    "types": {
      "t_address": {
        "encoding": "inplace",
        "label": "address",
        "numberOfBytes": "20"
      },
      "t_bool": {
        "encoding": "inplace",
        "label": "bool",
        "numberOfBytes": "1"
      },
      "t_contract(IBPContract)1557": {
        "encoding": "inplace",
        "label": "contract IBPContract",
        "numberOfBytes": "20"
      },
      "t_mapping(t_address,t_bool)": {
        "encoding": "mapping",
        "key": "t_address",
        "label": "mapping(address => bool)",
        "numberOfBytes": "32",
        "value": "t_bool"
      },
      "t_mapping(t_address,t_mapping(t_address,t_uint256))": {
        "encoding": "mapping",
        "key": "t_address",
        "label": "mapping(address => mapping(address => uint256))",
        "numberOfBytes": "32",
        "value": "t_mapping(t_address,t_uint256)"
      },
      "t_mapping(t_address,t_uint256)": {
        "encoding": "mapping",
        "key": "t_address",
        "label": "mapping(address => uint256)",
        "numberOfBytes": "32",
        "value": "t_uint256"
      },
      "t_string_storage": {
        "encoding": "bytes",
        "label": "string",
        "numberOfBytes": "32"
      },
      "t_uint256": {
        "encoding": "inplace",
        "label": "uint256",
        "numberOfBytes": "32"
      }
    }
  }
}