{
  "address": "0x7720fdb1b98846359bF26E3dA7D1B55063bf947D",
  "abi": [
    {
      "inputs": [
        {
          "internalType": "address",
          "name": "_token",
          "type": "address"
        }
      ],
      "stateMutability": "nonpayable",
      "type": "constructor"
    },
    {
      "anonymous": false,
      "inputs": [
        {
          "indexed": true,
          "internalType": "address",
          "name": "previousOwner",
          "type": "address"
        },
        {
          "indexed": true,
          "internalType": "address",
          "name": "newOwner",
          "type": "address"
        }
      ],
      "name": "OwnershipTransferred",
      "type": "event"
    },
    {
      "anonymous": false,
      "inputs": [
        {
          "indexed": true,
          "internalType": "address",
          "name": "beneficiary",
          "type": "address"
        },
        {
          "indexed": false,
          "internalType": "uint256",
          "name": "currentTime",
          "type": "uint256"
        },
        {
          "indexed": false,
          "internalType": "uint256",
          "name": "amount",
          "type": "uint256"
        }
      ],
      "name": "Released",
      "type": "event"
    },
    {
      "inputs": [
        {
          "internalType": "address[]",
          "name": "_beneficiaries",
          "type": "address[]"
        },
        {
          "internalType": "uint256[]",
          "name": "_totalAmt",
          "type": "uint256[]"
        },
        {
          "internalType": "uint256[]",
          "name": "_policies",
          "type": "uint256[]"
        }
      ],
      "name": "addBeneficiaries",
      "outputs": [],
      "stateMutability": "nonpayable",
      "type": "function"
    },
    {
      "inputs": [
        {
          "internalType": "address",
          "name": "_beneficiary",
          "type": "address"
        },
        {
          "internalType": "uint256",
          "name": "_totalAmt",
          "type": "uint256"
        },
        {
          "internalType": "uint256",
          "name": "_policy",
          "type": "uint256"
        }
      ],
      "name": "addBeneficiary",
      "outputs": [],
      "stateMutability": "nonpayable",
      "type": "function"
    },
    {
      "inputs": [
        {
          "internalType": "address",
          "name": "",
          "type": "address"
        }
      ],
      "name": "beneficiaries",
      "outputs": [
        {
          "internalType": "uint256",
          "name": "allocated",
          "type": "uint256"
        },
        {
          "internalType": "uint256",
          "name": "claimed",
          "type": "uint256"
        },
        {
          "internalType": "uint256",
          "name": "policy",
          "type": "uint256"
        }
      ],
      "stateMutability": "view",
      "type": "function"
    },
    {
      "inputs": [
        {
          "internalType": "uint256",
          "name": "",
          "type": "uint256"
        }
      ],
      "name": "beneficiariesList",
      "outputs": [
        {
          "internalType": "address",
          "name": "",
          "type": "address"
        }
      ],
      "stateMutability": "view",
      "type": "function"
    },
    {
      "inputs": [],
      "name": "claim",
      "outputs": [],
      "stateMutability": "nonpayable",
      "type": "function"
    },
    {
      "inputs": [
        {
          "internalType": "address",
          "name": "_beneficiary",
          "type": "address"
        }
      ],
      "name": "claimed",
      "outputs": [
        {
          "internalType": "uint256",
          "name": "",
          "type": "uint256"
        }
      ],
      "stateMutability": "view",
      "type": "function"
    },
    {
      "inputs": [
        {
          "internalType": "address",
          "name": "_beneficiary",
          "type": "address"
        }
      ],
      "name": "getAvailAmt",
      "outputs": [
        {
          "internalType": "uint256",
          "name": "_amount",
          "type": "uint256"
        }
      ],
      "stateMutability": "view",
      "type": "function"
    },
    {
      "inputs": [
        {
          "internalType": "address",
          "name": "_beneficiary",
          "type": "address"
        }
      ],
      "name": "getTotalAllocated",
      "outputs": [
        {
          "internalType": "uint256",
          "name": "",
          "type": "uint256"
        }
      ],
      "stateMutability": "view",
      "type": "function"
    },
    {
      "inputs": [],
      "name": "lock",
      "outputs": [],
      "stateMutability": "nonpayable",
      "type": "function"
    },
    {
      "inputs": [],
      "name": "locked",
      "outputs": [
        {
          "internalType": "bool",
          "name": "",
          "type": "bool"
        }
      ],
      "stateMutability": "view",
      "type": "function"
    },
    {
      "inputs": [],
      "name": "owner",
      "outputs": [
        {
          "internalType": "address",
          "name": "",
          "type": "address"
        }
      ],
      "stateMutability": "view",
      "type": "function"
    },
    {
      "inputs": [
        {
          "internalType": "uint256",
          "name": "",
          "type": "uint256"
        }
      ],
      "name": "policies",
      "outputs": [
        {
          "internalType": "uint256",
          "name": "TGEratio",
          "type": "uint256"
        },
        {
          "internalType": "uint256",
          "name": "TGEdenom",
          "type": "uint256"
        },
        {
          "internalType": "uint256",
          "name": "TGEtime",
          "type": "uint256"
        },
        {
          "internalType": "uint256",
          "name": "vestingStart",
          "type": "uint256"
        },
        {
          "internalType": "uint256",
          "name": "vestingEnd",
          "type": "uint256"
        },
        {
          "internalType": "uint256",
          "name": "period",
          "type": "uint256"
        },
        {
          "internalType": "uint256",
          "name": "totalPeriodNum",
          "type": "uint256"
        }
      ],
      "stateMutability": "view",
      "type": "function"
    },
    {
      "inputs": [],
      "name": "release",
      "outputs": [],
      "stateMutability": "nonpayable",
      "type": "function"
    },
    {
      "inputs": [],
      "name": "renounceOwnership",
      "outputs": [],
      "stateMutability": "nonpayable",
      "type": "function"
    },
    {
      "inputs": [
        {
          "internalType": "uint256",
          "name": "_TGEratio",
          "type": "uint256"
        },
        {
          "internalType": "uint256",
          "name": "_TGEdenom",
          "type": "uint256"
        },
        {
          "internalType": "uint256",
          "name": "_TGEtime",
          "type": "uint256"
        },
        {
          "internalType": "uint256",
          "name": "_vestingStart",
          "type": "uint256"
        },
        {
          "internalType": "uint256",
          "name": "_vestingEnd",
          "type": "uint256"
        },
        {
          "internalType": "uint256",
          "name": "_period",
          "type": "uint256"
        }
      ],
      "name": "setPolicy",
      "outputs": [],
      "stateMutability": "nonpayable",
      "type": "function"
    },
    {
      "inputs": [],
      "name": "token",
      "outputs": [
        {
          "internalType": "contract IERC20",
          "name": "",
          "type": "address"
        }
      ],
      "stateMutability": "view",
      "type": "function"
    },
    {
      "inputs": [
        {
          "internalType": "address",
          "name": "newOwner",
          "type": "address"
        }
      ],
      "name": "transferOwnership",
      "outputs": [],
      "stateMutability": "nonpayable",
      "type": "function"
    },
    {
      "inputs": [],
      "name": "withdraw",
      "outputs": [],
      "stateMutability": "nonpayable",
      "type": "function"
    }
  ],
  "transactionHash": "0x67ed286e20e164ab79c6dc19582d3e9b0656b41b24423646c7498450b963ca97",
  "args": [
    "0x7758a52c1Bb823d02878B67aD87B6bA37a0CDbF5"
  ],
  "numDeployments": 1,
  "solcInputHash": "f719b653e544565b9f80594e3543f400",
  "bytecode": "0x60806040523480156200001157600080fd5b5060405162002b4c38038062002b4c83398181016040528101906200003791906200024e565b620000576200004b6200011860201b60201c565b6200012060201b60201c565b60018081905550600073ffffffffffffffffffffffffffffffffffffffff168173ffffffffffffffffffffffffffffffffffffffff1603620000d0576040517f08c379a0000000000000000000000000000000000000000000000000000000008152600401620000c790620002e1565b60405180910390fd5b80600260006101000a81548173ffffffffffffffffffffffffffffffffffffffff021916908373ffffffffffffffffffffffffffffffffffffffff1602179055505062000303565b600033905090565b60008060009054906101000a900473ffffffffffffffffffffffffffffffffffffffff169050816000806101000a81548173ffffffffffffffffffffffffffffffffffffffff021916908373ffffffffffffffffffffffffffffffffffffffff1602179055508173ffffffffffffffffffffffffffffffffffffffff168173ffffffffffffffffffffffffffffffffffffffff167f8be0079c531659141344cd1fd0a4f28419497f9722a3daafe3b4186f6b6457e060405160405180910390a35050565b600080fd5b600073ffffffffffffffffffffffffffffffffffffffff82169050919050565b60006200021682620001e9565b9050919050565b620002288162000209565b81146200023457600080fd5b50565b60008151905062000248816200021d565b92915050565b600060208284031215620002675762000266620001e4565b5b6000620002778482850162000237565b91505092915050565b600082825260208201905092915050565b7f41646472657373206d757374206e6f74206265207a65726f0000000000000000600082015250565b6000620002c960188362000280565b9150620002d68262000291565b602082019050919050565b60006020820190508181036000830152620002fc81620002ba565b9050919050565b61283980620003136000396000f3fe608060405234801561001057600080fd5b50600436106101165760003560e01c8063b4d6abbf116100a2578063e2177df811610071578063e2177df8146102c3578063f2fde38b146102df578063f74bc9d6146102fb578063f83d08ba14610317578063fc0c546a1461032157610116565b8063b4d6abbf1461020f578063c884ef831461023f578063cf3090121461026f578063d3e894831461028d57610116565b8063534b01c6116100e9578063534b01c61461017d5780635f1fa8c0146101ad578063715018a6146101dd57806386d1a69f146101e75780638da5cb5b146101f157610116565b8063015677391461011b5780633ccfd60b1461014d5780634a997eeb146101575780634e71d92d14610173575b600080fd5b610135600480360381019061013091906118ff565b61033f565b60405161014493929190611945565b60405180910390f35b610155610369565b005b610171600480360381019061016c9190611a37565b6104dc565b005b61017b61067e565b005b610197600480360381019061019291906118ff565b6106e4565b6040516101a49190611aeb565b60405180910390f35b6101c760048036038101906101c29190611b32565b610730565b6040516101d49190611b6e565b60405180910390f35b6101e561076f565b005b6101ef6107f7565b005b6101f9610934565b6040516102069190611b6e565b60405180910390f35b610229600480360381019061022491906118ff565b61095d565b6040516102369190611aeb565b60405180910390f35b610259600480360381019061025491906118ff565b610b3c565b6040516102669190611aeb565b60405180910390f35b610277610b88565b6040516102849190611ba4565b60405180910390f35b6102a760048036038101906102a29190611b32565b610b9b565b6040516102ba9796959493929190611bbf565b60405180910390f35b6102dd60048036038101906102d89190611c2e565b610bed565b005b6102f960048036038101906102f491906118ff565b610e2a565b005b61031560048036038101906103109190611cbb565b610f21565b005b61031f61120e565b005b6103296112f7565b6040516103369190611d6d565b60405180910390f35b60056020528060005260406000206000915090508060000154908060010154908060020154905083565b61037161131d565b73ffffffffffffffffffffffffffffffffffffffff1661038f610934565b73ffffffffffffffffffffffffffffffffffffffff16146103e5576040517f08c379a00000000000000000000000000000000000000000000000000000000081526004016103dc90611de5565b60405180910390fd5b6000600260009054906101000a900473ffffffffffffffffffffffffffffffffffffffff1673ffffffffffffffffffffffffffffffffffffffff166370a08231306040518263ffffffff1660e01b81526004016104429190611b6e565b602060405180830381865afa15801561045f573d6000803e3d6000fd5b505050506040513d601f19601f820116820180604052508101906104839190611e1a565b90506104d961049061131d565b82600260009054906101000a900473ffffffffffffffffffffffffffffffffffffffff1673ffffffffffffffffffffffffffffffffffffffff166113259092919063ffffffff16565b50565b6104e461131d565b73ffffffffffffffffffffffffffffffffffffffff16610502610934565b73ffffffffffffffffffffffffffffffffffffffff1614610558576040517f08c379a000000000000000000000000000000000000000000000000000000000815260040161054f90611de5565b60405180910390fd5b600260149054906101000a900460ff16156105a8576040517f08c379a000000000000000000000000000000000000000000000000000000000815260040161059f90611e93565b60405180910390fd5b8383905086869050146105f0576040517f08c379a00000000000000000000000000000000000000000000000000000000081526004016105e790611eff565b60405180910390fd5b60005b868690508110156106755761066287878381811061061457610613611f1f565b5b905060200201602081019061062991906118ff565b86868481811061063c5761063b611f1f565b5b9050602002013585858581811061065657610655611f1f565b5b90506020020135610f21565b808061066d90611f7d565b9150506105f3565b50505050505050565b6002600154036106c3576040517f08c379a00000000000000000000000000000000000000000000000000000000081526004016106ba90612011565b60405180910390fd5b60026001819055506106db6106d661131d565b6113ab565b60018081905550565b6000600560008373ffffffffffffffffffffffffffffffffffffffff1673ffffffffffffffffffffffffffffffffffffffff168152602001908152602001600020600001549050919050565b6004818154811061074057600080fd5b906000526020600020016000915054906101000a900473ffffffffffffffffffffffffffffffffffffffff1681565b61077761131d565b73ffffffffffffffffffffffffffffffffffffffff16610795610934565b73ffffffffffffffffffffffffffffffffffffffff16146107eb576040517f08c379a00000000000000000000000000000000000000000000000000000000081526004016107e290611de5565b60405180910390fd5b6107f560006114b4565b565b60026001540361083c576040517f08c379a000000000000000000000000000000000000000000000000000000000815260040161083390612011565b60405180910390fd5b600260018190555061084c61131d565b73ffffffffffffffffffffffffffffffffffffffff1661086a610934565b73ffffffffffffffffffffffffffffffffffffffff16146108c0576040517f08c379a00000000000000000000000000000000000000000000000000000000081526004016108b790611de5565b60405180910390fd5b60005b60048054905081101561092a57610917600482815481106108e7576108e6611f1f565b5b9060005260206000200160009054906101000a900473ffffffffffffffffffffffffffffffffffffffff166113ab565b808061092290611f7d565b9150506108c3565b5060018081905550565b60008060009054906101000a900473ffffffffffffffffffffffffffffffffffffffff16905090565b600080600560008473ffffffffffffffffffffffffffffffffffffffff1673ffffffffffffffffffffffffffffffffffffffff16815260200190815260200160002060405180606001604052908160008201548152602001600182015481526020016002820154815250509050600060038260400151815481106109e4576109e3611f1f565b5b90600052602060002090600702016040518060e001604052908160008201548152602001600182015481526020016002820154815260200160038201548152602001600482015481526020016005820154815260200160068201548152505090506000816020015182600001518460000151610a609190612031565b610a6a91906120ba565b90508160400151421115610a87578084610a8491906120eb565b93505b816080015142108015610a9d5750816060015142115b15610b0e57600060018360a00151846060015142610abb9190612141565b610ac591906120ba565b610acf91906120eb565b90508260c00151828560000151610ae69190612141565b82610af19190612031565b610afb91906120ba565b85610b0691906120eb565b945050610b22565b81608001514210610b2157826000015193505b5b826020015184610b329190612141565b9350505050919050565b6000600560008373ffffffffffffffffffffffffffffffffffffffff1673ffffffffffffffffffffffffffffffffffffffff168152602001908152602001600020600101549050919050565b600260149054906101000a900460ff1681565b60038181548110610bab57600080fd5b90600052602060002090600702016000915090508060000154908060010154908060020154908060030154908060040154908060050154908060060154905087565b610bf561131d565b73ffffffffffffffffffffffffffffffffffffffff16610c13610934565b73ffffffffffffffffffffffffffffffffffffffff1614610c69576040517f08c379a0000000000000000000000000000000000000000000000000000000008152600401610c6090611de5565b60405180910390fd5b600260149054906101000a900460ff1615610cb9576040517f08c379a0000000000000000000000000000000000000000000000000000000008152600401610cb090611e93565b60405180910390fd5b6000818484610cc89190612141565b610cd29190612175565b14610d12576040517f08c379a0000000000000000000000000000000000000000000000000000000008152600401610d09906121f2565b60405180910390fd5b838311610d54576040517f08c379a0000000000000000000000000000000000000000000000000000000008152600401610d4b9061225e565b60405180910390fd5b60006001828585610d659190612141565b610d6f91906120ba565b610d7991906120eb565b905060036040518060e00160405280898152602001888152602001878152602001868152602001858152602001848152602001838152509080600181540180825580915050600190039060005260206000209060070201600090919091909150600082015181600001556020820151816001015560408201518160020155606082015181600301556080820151816004015560a0820151816005015560c08201518160060155505050505050505050565b610e3261131d565b73ffffffffffffffffffffffffffffffffffffffff16610e50610934565b73ffffffffffffffffffffffffffffffffffffffff1614610ea6576040517f08c379a0000000000000000000000000000000000000000000000000000000008152600401610e9d90611de5565b60405180910390fd5b600073ffffffffffffffffffffffffffffffffffffffff168173ffffffffffffffffffffffffffffffffffffffff1603610f15576040517f08c379a0000000000000000000000000000000000000000000000000000000008152600401610f0c906122f0565b60405180910390fd5b610f1e816114b4565b50565b610f2961131d565b73ffffffffffffffffffffffffffffffffffffffff16610f47610934565b73ffffffffffffffffffffffffffffffffffffffff1614610f9d576040517f08c379a0000000000000000000000000000000000000000000000000000000008152600401610f9490611de5565b60405180910390fd5b600260149054906101000a900460ff1615610fed576040517f08c379a0000000000000000000000000000000000000000000000000000000008152600401610fe490611e93565b60405180910390fd5b82600073ffffffffffffffffffffffffffffffffffffffff168173ffffffffffffffffffffffffffffffffffffffff160361105d576040517f08c379a00000000000000000000000000000000000000000000000000000000081526004016110549061235c565b60405180910390fd5b60038054905082106110a4576040517f08c379a000000000000000000000000000000000000000000000000000000000815260040161109b906123c8565b60405180910390fd5b6000600560008673ffffffffffffffffffffffffffffffffffffffff1673ffffffffffffffffffffffffffffffffffffffff1681526020019081526020016000206000015414611129576040517f08c379a000000000000000000000000000000000000000000000000000000000815260040161112090612434565b60405180910390fd5b60405180606001604052808481526020016000815260200183815250600560008673ffffffffffffffffffffffffffffffffffffffff1673ffffffffffffffffffffffffffffffffffffffff1681526020019081526020016000206000820151816000015560208201518160010155604082015181600201559050506004849080600181540180825580915050600190039060005260206000200160009091909190916101000a81548173ffffffffffffffffffffffffffffffffffffffff021916908373ffffffffffffffffffffffffffffffffffffffff16021790555050505050565b61121661131d565b73ffffffffffffffffffffffffffffffffffffffff16611234610934565b73ffffffffffffffffffffffffffffffffffffffff161461128a576040517f08c379a000000000000000000000000000000000000000000000000000000000815260040161128190611de5565b60405180910390fd5b600260149054906101000a900460ff16156112da576040517f08c379a00000000000000000000000000000000000000000000000000000000081526004016112d190611e93565b60405180910390fd5b6001600260146101000a81548160ff021916908315150217905550565b600260009054906101000a900473ffffffffffffffffffffffffffffffffffffffff1681565b600033905090565b6113a68363a9059cbb60e01b8484604051602401611344929190612454565b604051602081830303815290604052907bffffffffffffffffffffffffffffffffffffffffffffffffffffffff19166020820180517bffffffffffffffffffffffffffffffffffffffffffffffffffffffff8381831617835250505050611578565b505050565b6000600560008373ffffffffffffffffffffffffffffffffffffffff1673ffffffffffffffffffffffffffffffffffffffff1681526020019081526020016000206000015403611430576040517f08c379a0000000000000000000000000000000000000000000000000000000008152600401611427906124c9565b60405180910390fd5b600061143b8261095d565b90506000810361144b57506114b1565b80600560008473ffffffffffffffffffffffffffffffffffffffff1673ffffffffffffffffffffffffffffffffffffffff168152602001908152602001600020600101600082825461149d91906120eb565b925050819055506114af82428361163f565b505b50565b60008060009054906101000a900473ffffffffffffffffffffffffffffffffffffffff169050816000806101000a81548173ffffffffffffffffffffffffffffffffffffffff021916908373ffffffffffffffffffffffffffffffffffffffff1602179055508173ffffffffffffffffffffffffffffffffffffffff168173ffffffffffffffffffffffffffffffffffffffff167f8be0079c531659141344cd1fd0a4f28419497f9722a3daafe3b4186f6b6457e060405160405180910390a35050565b60006115da826040518060400160405280602081526020017f5361666545524332303a206c6f772d6c6576656c2063616c6c206661696c65648152508573ffffffffffffffffffffffffffffffffffffffff166116e19092919063ffffffff16565b905060008151111561163a57808060200190518101906115fa9190612515565b611639576040517f08c379a0000000000000000000000000000000000000000000000000000000008152600401611630906125b4565b60405180910390fd5b5b505050565b61168c8382600260009054906101000a900473ffffffffffffffffffffffffffffffffffffffff1673ffffffffffffffffffffffffffffffffffffffff166113259092919063ffffffff16565b8273ffffffffffffffffffffffffffffffffffffffff167f82e416ba72d10e709b5de7ac16f5f49ff1d94f22d55bf582d353d3c313a1e8dd83836040516116d49291906125d4565b60405180910390a2505050565b60606116f084846000856116f9565b90509392505050565b60608247101561173e576040517f08c379a00000000000000000000000000000000000000000000000000000000081526004016117359061266f565b60405180910390fd5b6117478561180d565b611786576040517f08c379a000000000000000000000000000000000000000000000000000000000815260040161177d906126db565b60405180910390fd5b6000808673ffffffffffffffffffffffffffffffffffffffff1685876040516117af9190612775565b60006040518083038185875af1925050503d80600081146117ec576040519150601f19603f3d011682016040523d82523d6000602084013e6117f1565b606091505b5091509150611801828286611830565b92505050949350505050565b6000808273ffffffffffffffffffffffffffffffffffffffff163b119050919050565b6060831561184057829050611890565b6000835111156118535782518084602001fd5b816040517f08c379a000000000000000000000000000000000000000000000000000000000815260040161188791906127e1565b60405180910390fd5b9392505050565b600080fd5b600080fd5b600073ffffffffffffffffffffffffffffffffffffffff82169050919050565b60006118cc826118a1565b9050919050565b6118dc816118c1565b81146118e757600080fd5b50565b6000813590506118f9816118d3565b92915050565b60006020828403121561191557611914611897565b5b6000611923848285016118ea565b91505092915050565b6000819050919050565b61193f8161192c565b82525050565b600060608201905061195a6000830186611936565b6119676020830185611936565b6119746040830184611936565b949350505050565b600080fd5b600080fd5b600080fd5b60008083601f8401126119a1576119a061197c565b5b8235905067ffffffffffffffff8111156119be576119bd611981565b5b6020830191508360208202830111156119da576119d9611986565b5b9250929050565b60008083601f8401126119f7576119f661197c565b5b8235905067ffffffffffffffff811115611a1457611a13611981565b5b602083019150836020820283011115611a3057611a2f611986565b5b9250929050565b60008060008060008060608789031215611a5457611a53611897565b5b600087013567ffffffffffffffff811115611a7257611a7161189c565b5b611a7e89828a0161198b565b9650965050602087013567ffffffffffffffff811115611aa157611aa061189c565b5b611aad89828a016119e1565b9450945050604087013567ffffffffffffffff811115611ad057611acf61189c565b5b611adc89828a016119e1565b92509250509295509295509295565b6000602082019050611b006000830184611936565b92915050565b611b0f8161192c565b8114611b1a57600080fd5b50565b600081359050611b2c81611b06565b92915050565b600060208284031215611b4857611b47611897565b5b6000611b5684828501611b1d565b91505092915050565b611b68816118c1565b82525050565b6000602082019050611b836000830184611b5f565b92915050565b60008115159050919050565b611b9e81611b89565b82525050565b6000602082019050611bb96000830184611b95565b92915050565b600060e082019050611bd4600083018a611936565b611be16020830189611936565b611bee6040830188611936565b611bfb6060830187611936565b611c086080830186611936565b611c1560a0830185611936565b611c2260c0830184611936565b98975050505050505050565b60008060008060008060c08789031215611c4b57611c4a611897565b5b6000611c5989828a01611b1d565b9650506020611c6a89828a01611b1d565b9550506040611c7b89828a01611b1d565b9450506060611c8c89828a01611b1d565b9350506080611c9d89828a01611b1d565b92505060a0611cae89828a01611b1d565b9150509295509295509295565b600080600060608486031215611cd457611cd3611897565b5b6000611ce2868287016118ea565b9350506020611cf386828701611b1d565b9250506040611d0486828701611b1d565b9150509250925092565b6000819050919050565b6000611d33611d2e611d29846118a1565b611d0e565b6118a1565b9050919050565b6000611d4582611d18565b9050919050565b6000611d5782611d3a565b9050919050565b611d6781611d4c565b82525050565b6000602082019050611d826000830184611d5e565b92915050565b600082825260208201905092915050565b7f4f776e61626c653a2063616c6c6572206973206e6f7420746865206f776e6572600082015250565b6000611dcf602083611d88565b9150611dda82611d99565b602082019050919050565b60006020820190508181036000830152611dfe81611dc2565b9050919050565b600081519050611e1481611b06565b92915050565b600060208284031215611e3057611e2f611897565b5b6000611e3e84828501611e05565b91505092915050565b7f4c6f636b656420616c7265616479000000000000000000000000000000000000600082015250565b6000611e7d600e83611d88565b9150611e8882611e47565b602082019050919050565b60006020820190508181036000830152611eac81611e70565b9050919050565b7f496e76616c6964206172726179206c656e677468000000000000000000000000600082015250565b6000611ee9601483611d88565b9150611ef482611eb3565b602082019050919050565b60006020820190508181036000830152611f1881611edc565b9050919050565b7f4e487b7100000000000000000000000000000000000000000000000000000000600052603260045260246000fd5b7f4e487b7100000000000000000000000000000000000000000000000000000000600052601160045260246000fd5b6000611f888261192c565b91507fffffffffffffffffffffffffffffffffffffffffffffffffffffffffffffffff8203611fba57611fb9611f4e565b5b600182019050919050565b7f5265656e7472616e637947756172643a207265656e7472616e742063616c6c00600082015250565b6000611ffb601f83611d88565b915061200682611fc5565b602082019050919050565b6000602082019050818103600083015261202a81611fee565b9050919050565b600061203c8261192c565b91506120478361192c565b9250817fffffffffffffffffffffffffffffffffffffffffffffffffffffffffffffffff04831182151516156120805761207f611f4e565b5b828202905092915050565b7f4e487b7100000000000000000000000000000000000000000000000000000000600052601260045260246000fd5b60006120c58261192c565b91506120d08361192c565b9250826120e0576120df61208b565b5b828204905092915050565b60006120f68261192c565b91506121018361192c565b9250827fffffffffffffffffffffffffffffffffffffffffffffffffffffffffffffffff0382111561213657612135611f4e565b5b828201905092915050565b600061214c8261192c565b91506121578361192c565b92508282101561216a57612169611f4e565b5b828203905092915050565b60006121808261192c565b915061218b8361192c565b92508261219b5761219a61208b565b5b828206905092915050565b7f56657374696e672074696d656c696e6520696e76616c69640000000000000000600082015250565b60006121dc601883611d88565b91506121e7826121a6565b602082019050919050565b6000602082019050818103600083015261220b816121cf565b9050919050565b7f56657374696e67206d7573742073746172742061667465722054474500000000600082015250565b6000612248601c83611d88565b915061225382612212565b602082019050919050565b600060208201905081810360008301526122778161223b565b9050919050565b7f4f776e61626c653a206e6577206f776e657220697320746865207a65726f206160008201527f6464726573730000000000000000000000000000000000000000000000000000602082015250565b60006122da602683611d88565b91506122e58261227e565b604082019050919050565b60006020820190508181036000830152612309816122cd565b9050919050565b7f41646472657373206d757374206e6f74206265207a65726f0000000000000000600082015250565b6000612346601883611d88565b915061235182612310565b602082019050919050565b6000602082019050818103600083015261237581612339565b9050919050565b7f506f6c696379206e6f7420657869737465640000000000000000000000000000600082015250565b60006123b2601283611d88565b91506123bd8261237c565b602082019050919050565b600060208201905081810360008301526123e1816123a5565b9050919050565b7f416c726561647920616464656400000000000000000000000000000000000000600082015250565b600061241e600d83611d88565b9150612429826123e8565b602082019050919050565b6000602082019050818103600083015261244d81612411565b9050919050565b60006040820190506124696000830185611b5f565b6124766020830184611936565b9392505050565b7f42656e6566696369617279206e6f742065786973746564000000000000000000600082015250565b60006124b3601783611d88565b91506124be8261247d565b602082019050919050565b600060208201905081810360008301526124e2816124a6565b9050919050565b6124f281611b89565b81146124fd57600080fd5b50565b60008151905061250f816124e9565b92915050565b60006020828403121561252b5761252a611897565b5b600061253984828501612500565b91505092915050565b7f5361666545524332303a204552433230206f7065726174696f6e20646964206e60008201527f6f74207375636365656400000000000000000000000000000000000000000000602082015250565b600061259e602a83611d88565b91506125a982612542565b604082019050919050565b600060208201905081810360008301526125cd81612591565b9050919050565b60006040820190506125e96000830185611936565b6125f66020830184611936565b9392505050565b7f416464726573733a20696e73756666696369656e742062616c616e636520666f60008201527f722063616c6c0000000000000000000000000000000000000000000000000000602082015250565b6000612659602683611d88565b9150612664826125fd565b604082019050919050565b600060208201905081810360008301526126888161264c565b9050919050565b7f416464726573733a2063616c6c20746f206e6f6e2d636f6e7472616374000000600082015250565b60006126c5601d83611d88565b91506126d08261268f565b602082019050919050565b600060208201905081810360008301526126f4816126b8565b9050919050565b600081519050919050565b600081905092915050565b60005b8381101561272f578082015181840152602081019050612714565b8381111561273e576000848401525b50505050565b600061274f826126fb565b6127598185612706565b9350612769818560208601612711565b80840191505092915050565b60006127818284612744565b915081905092915050565b600081519050919050565b6000601f19601f8301169050919050565b60006127b38261278c565b6127bd8185611d88565b93506127cd818560208601612711565b6127d681612797565b840191505092915050565b600060208201905081810360008301526127fb81846127a8565b90509291505056fea264697066735822122008ce78e52796e40bae58d68d7a71551384f9af57232494b1ae794cd49585020c64736f6c634300080d0033",
  "devdoc": {
    "kind": "dev",
    "methods": {
      "addBeneficiaries(address[],uint256[],uint256[])": {
        "details": "Caller must be Owner Not allow Owner to alter the vesting policy",
        "params": {
          "_beneficiaries": "all `_beneficiaries` address",
          "_totalAmt": "Amount that corresponding `_beneficiary` can claim in total "
        }
      },
      "addBeneficiary(address,uint256,uint256)": {
        "details": "Caller must be Owner Not allow Owner to alter the vesting policy",
        "params": {
          "_beneficiary": "`_beneficiary` address",
          "_policy": "index of the correspond policy for beneficiary",
          "_totalAmt": "Amount that `_beneficiary` can claim in total"
        }
      },
      "claim()": {
        "details": "Caller can be any Note:  - Only Beneficiaries, who were added into the list, are able to claim tokens - If `_policy`, that binds to msg.sender, is not found -> revert - Previously unclaimed amounts will be accumulated"
      },
      "getAvailAmt(address)": {
        "details": "Caller can be ANY"
      },
      "lock()": {
        "details": "Caller must be Owner Note: - Set value of `locked` to `true` - When `locked = true`, setVesting() will be locked and additional vesting policies can't be added - No method to unlock this state"
      },
      "owner()": {
        "details": "Returns the address of the current owner."
      },
      "release()": {
        "details": "Caller can be owner only"
      },
      "renounceOwnership()": {
        "details": "Leaves the contract without owner. It will not be possible to call `onlyOwner` functions anymore. Can only be called by the current owner. NOTE: Renouncing ownership will leave the contract without an owner, thereby removing any functionality that is only available to the owner."
      },
      "setPolicy(uint256,uint256,uint256,uint256,uint256,uint256)": {
        "params": {
          "_TGEdenom": "denominator of `_TGEratio`",
          "_TGEratio": "amount to release on TGE in `_TGEdenom` of total allocated",
          "_TGEtime": "moment of TGE",
          "_period": "duration of an vesting period",
          "_vestingEnd": "last of vesting time, return last vesting on this timestamp",
          "_vestingStart": "moment of vesting duration start"
        }
      },
      "transferOwnership(address)": {
        "details": "Transfers ownership of the contract to a new account (`newOwner`). Can only be called by the current owner."
      },
      "withdraw()": {
        "details": "Caller can be owner only"
      }
    },
    "version": 1
  },
  "userdoc": {
    "kind": "user",
    "methods": {
      "addBeneficiaries(address[],uint256[],uint256[])": {
        "notice": "add multiple beneficiaries"
      },
      "addBeneficiary(address,uint256,uint256)": {
        "notice": "add beneficiary"
      },
      "claim()": {
        "notice": "Beneficiaries use this method to claim vesting tokens"
      },
      "getAvailAmt(address)": {
        "notice": "Query available amount that `_beneficiary` is able to claim at the moment"
      },
      "lock()": {
        "notice": "Enable the lock state of setting"
      },
      "release()": {
        "notice": "Owner call this to realease token to all beneficiaries"
      },
      "setPolicy(uint256,uint256,uint256,uint256,uint256,uint256)": {
        "notice": "Set policy and vesting timeline"
      },
      "withdraw()": {
        "notice": "Owner call this to withdraw all vesting token"
      }
    },
    "version": 1
  },
  "storageLayout": {
    "storage": [
      {
        "astId": 7,
        "contract": "contracts/PeriodicVesting.sol:PeriodicVesting",
        "label": "_owner",
        "offset": 0,
        "slot": "0",
        "type": "t_address"
      },
      {
        "astId": 207,
        "contract": "contracts/PeriodicVesting.sol:PeriodicVesting",
        "label": "_status",
        "offset": 0,
        "slot": "1",
        "type": "t_uint256"
      },
      {
        "astId": 1842,
        "contract": "contracts/PeriodicVesting.sol:PeriodicVesting",
        "label": "token",
        "offset": 0,
        "slot": "2",
        "type": "t_contract(IERC20)902"
      },
      {
        "astId": 1844,
        "contract": "contracts/PeriodicVesting.sol:PeriodicVesting",
        "label": "locked",
        "offset": 20,
        "slot": "2",
        "type": "t_bool"
      },
      {
        "astId": 1848,
        "contract": "contracts/PeriodicVesting.sol:PeriodicVesting",
        "label": "policies",
        "offset": 0,
        "slot": "3",
        "type": "t_array(t_struct(PoolPolicy)1832_storage)dyn_storage"
      },
      {
        "astId": 1851,
        "contract": "contracts/PeriodicVesting.sol:PeriodicVesting",
        "label": "beneficiariesList",
        "offset": 0,
        "slot": "4",
        "type": "t_array(t_address)dyn_storage"
      },
      {
        "astId": 1856,
        "contract": "contracts/PeriodicVesting.sol:PeriodicVesting",
        "label": "beneficiaries",
        "offset": 0,
        "slot": "5",
        "type": "t_mapping(t_address,t_struct(Beneficiary)1839_storage)"
      }
    ],
    "types": {
      "t_address": {
        "encoding": "inplace",
        "label": "address",
        "numberOfBytes": "20"
      },
      "t_array(t_address)dyn_storage": {
        "base": "t_address",
        "encoding": "dynamic_array",
        "label": "address[]",
        "numberOfBytes": "32"
      },
      "t_array(t_struct(PoolPolicy)1832_storage)dyn_storage": {
        "base": "t_struct(PoolPolicy)1832_storage",
        "encoding": "dynamic_array",
        "label": "struct PeriodicVesting.PoolPolicy[]",
        "numberOfBytes": "32"
      },
      "t_bool": {
        "encoding": "inplace",
        "label": "bool",
        "numberOfBytes": "1"
      },
      "t_contract(IERC20)902": {
        "encoding": "inplace",
        "label": "contract IERC20",
        "numberOfBytes": "20"
      },
      "t_mapping(t_address,t_struct(Beneficiary)1839_storage)": {
        "encoding": "mapping",
        "key": "t_address",
        "label": "mapping(address => struct PeriodicVesting.Beneficiary)",
        "numberOfBytes": "32",
        "value": "t_struct(Beneficiary)1839_storage"
      },
      "t_struct(Beneficiary)1839_storage": {
        "encoding": "inplace",
        "label": "struct PeriodicVesting.Beneficiary",
        "members": [
          {
            "astId": 1834,
            "contract": "contracts/PeriodicVesting.sol:PeriodicVesting",
            "label": "allocated",
            "offset": 0,
            "slot": "0",
            "type": "t_uint256"
          },
          {
            "astId": 1836,
            "contract": "contracts/PeriodicVesting.sol:PeriodicVesting",
            "label": "claimed",
            "offset": 0,
            "slot": "1",
            "type": "t_uint256"
          },
          {
            "astId": 1838,
            "contract": "contracts/PeriodicVesting.sol:PeriodicVesting",
            "label": "policy",
            "offset": 0,
            "slot": "2",
            "type": "t_uint256"
          }
        ],
        "numberOfBytes": "96"
      },
      "t_struct(PoolPolicy)1832_storage": {
        "encoding": "inplace",
        "label": "struct PeriodicVesting.PoolPolicy",
        "members": [
          {
            "astId": 1819,
            "contract": "contracts/PeriodicVesting.sol:PeriodicVesting",
            "label": "TGEratio",
            "offset": 0,
            "slot": "0",
            "type": "t_uint256"
          },
          {
            "astId": 1821,
            "contract": "contracts/PeriodicVesting.sol:PeriodicVesting",
            "label": "TGEdenom",
            "offset": 0,
            "slot": "1",
            "type": "t_uint256"
          },
          {
            "astId": 1823,
            "contract": "contracts/PeriodicVesting.sol:PeriodicVesting",
            "label": "TGEtime",
            "offset": 0,
            "slot": "2",
            "type": "t_uint256"
          },
          {
            "astId": 1825,
            "contract": "contracts/PeriodicVesting.sol:PeriodicVesting",
            "label": "vestingStart",
            "offset": 0,
            "slot": "3",
            "type": "t_uint256"
          },
          {
            "astId": 1827,
            "contract": "contracts/PeriodicVesting.sol:PeriodicVesting",
            "label": "vestingEnd",
            "offset": 0,
            "slot": "4",
            "type": "t_uint256"
          },
          {
            "astId": 1829,
            "contract": "contracts/PeriodicVesting.sol:PeriodicVesting",
            "label": "period",
            "offset": 0,
            "slot": "5",
            "type": "t_uint256"
          },
          {
            "astId": 1831,
            "contract": "contracts/PeriodicVesting.sol:PeriodicVesting",
            "label": "totalPeriodNum",
            "offset": 0,
            "slot": "6",
            "type": "t_uint256"
          }
        ],
        "numberOfBytes": "224"
      },
      "t_uint256": {
        "encoding": "inplace",
        "label": "uint256",
        "numberOfBytes": "32"
      }
    }
  }
}