{
  "address": "0x0075da26Ed9Dd097bf955Cc9a83156b802Ae0091",
  "abi": [
    {
      "inputs": [
        {
          "internalType": "string",
          "name": "_name",
          "type": "string"
        },
        {
          "internalType": "string",
          "name": "_symbol",
          "type": "string"
        },
        {
          "internalType": "uint256",
          "name": "_initialSupply",
          "type": "uint256"
        }
      ],
      "stateMutability": "nonpayable",
      "type": "constructor"
    },
    {
      "anonymous": false,
      "inputs": [
        {
          "indexed": true,
          "internalType": "address",
          "name": "owner",
          "type": "address"
        },
        {
          "indexed": true,
          "internalType": "address",
          "name": "spender",
          "type": "address"
        },
        {
          "indexed": false,
          "internalType": "uint256",
          "name": "value",
          "type": "uint256"
        }
      ],
      "name": "Approval",
      "type": "event"
    },
    {
      "anonymous": false,
      "inputs": [
        {
          "indexed": true,
          "internalType": "address",
          "name": "previousOwner",
          "type": "address"
        },
        {
          "indexed": true,
          "internalType": "address",
          "name": "newOwner",
          "type": "address"
        }
      ],
      "name": "OwnershipTransferred",
      "type": "event"
    },
    {
      "anonymous": false,
      "inputs": [
        {
          "indexed": false,
          "internalType": "address",
          "name": "account",
          "type": "address"
        }
      ],
      "name": "Paused",
      "type": "event"
    },
    {
      "anonymous": false,
      "inputs": [
        {
          "indexed": true,
          "internalType": "address",
          "name": "from",
          "type": "address"
        },
        {
          "indexed": true,
          "internalType": "address",
          "name": "to",
          "type": "address"
        },
        {
          "indexed": false,
          "internalType": "uint256",
          "name": "value",
          "type": "uint256"
        }
      ],
      "name": "Transfer",
      "type": "event"
    },
    {
      "anonymous": false,
      "inputs": [
        {
          "indexed": false,
          "internalType": "address",
          "name": "account",
          "type": "address"
        }
      ],
      "name": "Unpaused",
      "type": "event"
    },
    {
      "inputs": [
        {
          "internalType": "address",
          "name": "owner",
          "type": "address"
        },
        {
          "internalType": "address",
          "name": "spender",
          "type": "address"
        }
      ],
      "name": "allowance",
      "outputs": [
        {
          "internalType": "uint256",
          "name": "",
          "type": "uint256"
        }
      ],
      "stateMutability": "view",
      "type": "function"
    },
    {
      "inputs": [
        {
          "internalType": "address",
          "name": "spender",
          "type": "address"
        },
        {
          "internalType": "uint256",
          "name": "amount",
          "type": "uint256"
        }
      ],
      "name": "approve",
      "outputs": [
        {
          "internalType": "bool",
          "name": "",
          "type": "bool"
        }
      ],
      "stateMutability": "nonpayable",
      "type": "function"
    },
    {
      "inputs": [
        {
          "internalType": "address",
          "name": "account",
          "type": "address"
        }
      ],
      "name": "balanceOf",
      "outputs": [
        {
          "internalType": "uint256",
          "name": "",
          "type": "uint256"
        }
      ],
      "stateMutability": "view",
      "type": "function"
    },
    {
      "inputs": [
        {
          "internalType": "address",
          "name": "_user",
          "type": "address"
        },
        {
          "internalType": "bool",
          "name": "_isBlacklisted",
          "type": "bool"
        }
      ],
      "name": "blacklist",
      "outputs": [],
      "stateMutability": "nonpayable",
      "type": "function"
    },
    {
      "inputs": [
        {
          "internalType": "address",
          "name": "",
          "type": "address"
        }
      ],
      "name": "blacklisted",
      "outputs": [
        {
          "internalType": "bool",
          "name": "",
          "type": "bool"
        }
      ],
      "stateMutability": "view",
      "type": "function"
    },
    {
      "inputs": [
        {
          "internalType": "uint256",
          "name": "amount",
          "type": "uint256"
        }
      ],
      "name": "burn",
      "outputs": [],
      "stateMutability": "nonpayable",
      "type": "function"
    },
    {
      "inputs": [
        {
          "internalType": "address",
          "name": "account",
          "type": "address"
        },
        {
          "internalType": "uint256",
          "name": "amount",
          "type": "uint256"
        }
      ],
      "name": "burnFrom",
      "outputs": [],
      "stateMutability": "nonpayable",
      "type": "function"
    },
    {
      "inputs": [],
      "name": "decimals",
      "outputs": [
        {
          "internalType": "uint8",
          "name": "",
          "type": "uint8"
        }
      ],
      "stateMutability": "view",
      "type": "function"
    },
    {
      "inputs": [
        {
          "internalType": "address",
          "name": "spender",
          "type": "address"
        },
        {
          "internalType": "uint256",
          "name": "subtractedValue",
          "type": "uint256"
        }
      ],
      "name": "decreaseAllowance",
      "outputs": [
        {
          "internalType": "bool",
          "name": "",
          "type": "bool"
        }
      ],
      "stateMutability": "nonpayable",
      "type": "function"
    },
    {
      "inputs": [
        {
          "internalType": "address",
          "name": "spender",
          "type": "address"
        },
        {
          "internalType": "uint256",
          "name": "addedValue",
          "type": "uint256"
        }
      ],
      "name": "increaseAllowance",
      "outputs": [
        {
          "internalType": "bool",
          "name": "",
          "type": "bool"
        }
      ],
      "stateMutability": "nonpayable",
      "type": "function"
    },
    {
      "inputs": [
        {
          "internalType": "address",
          "name": "_to",
          "type": "address"
        },
        {
          "internalType": "uint256",
          "name": "_amount",
          "type": "uint256"
        }
      ],
      "name": "mint",
      "outputs": [],
      "stateMutability": "nonpayable",
      "type": "function"
    },
    {
      "inputs": [],
      "name": "name",
      "outputs": [
        {
          "internalType": "string",
          "name": "",
          "type": "string"
        }
      ],
      "stateMutability": "view",
      "type": "function"
    },
    {
      "inputs": [],
      "name": "owner",
      "outputs": [
        {
          "internalType": "address",
          "name": "",
          "type": "address"
        }
      ],
      "stateMutability": "view",
      "type": "function"
    },
    {
      "inputs": [],
      "name": "pause",
      "outputs": [],
      "stateMutability": "nonpayable",
      "type": "function"
    },
    {
      "inputs": [],
      "name": "paused",
      "outputs": [
        {
          "internalType": "bool",
          "name": "",
          "type": "bool"
        }
      ],
      "stateMutability": "view",
      "type": "function"
    },
    {
      "inputs": [],
      "name": "renounceOwnership",
      "outputs": [],
      "stateMutability": "nonpayable",
      "type": "function"
    },
    {
      "inputs": [],
      "name": "symbol",
      "outputs": [
        {
          "internalType": "string",
          "name": "",
          "type": "string"
        }
      ],
      "stateMutability": "view",
      "type": "function"
    },
    {
      "inputs": [],
      "name": "totalSupply",
      "outputs": [
        {
          "internalType": "uint256",
          "name": "",
          "type": "uint256"
        }
      ],
      "stateMutability": "view",
      "type": "function"
    },
    {
      "inputs": [
        {
          "internalType": "address",
          "name": "to",
          "type": "address"
        },
        {
          "internalType": "uint256",
          "name": "amount",
          "type": "uint256"
        }
      ],
      "name": "transfer",
      "outputs": [
        {
          "internalType": "bool",
          "name": "",
          "type": "bool"
        }
      ],
      "stateMutability": "nonpayable",
      "type": "function"
    },
    {
      "inputs": [
        {
          "internalType": "address",
          "name": "from",
          "type": "address"
        },
        {
          "internalType": "address",
          "name": "to",
          "type": "address"
        },
        {
          "internalType": "uint256",
          "name": "amount",
          "type": "uint256"
        }
      ],
      "name": "transferFrom",
      "outputs": [
        {
          "internalType": "bool",
          "name": "",
          "type": "bool"
        }
      ],
      "stateMutability": "nonpayable",
      "type": "function"
    },
    {
      "inputs": [
        {
          "internalType": "address",
          "name": "newOwner",
          "type": "address"
        }
      ],
      "name": "transferOwnership",
      "outputs": [],
      "stateMutability": "nonpayable",
      "type": "function"
    },
    {
      "inputs": [],
      "name": "unpause",
      "outputs": [],
      "stateMutability": "nonpayable",
      "type": "function"
    },
    {
      "inputs": [
        {
          "internalType": "address",
          "name": "_user",
          "type": "address"
        },
        {
          "internalType": "bool",
          "name": "_isWhitelisted",
          "type": "bool"
        }
      ],
      "name": "whitelist",
      "outputs": [],
      "stateMutability": "nonpayable",
      "type": "function"
    },
    {
      "inputs": [
        {
          "internalType": "address",
          "name": "",
          "type": "address"
        }
      ],
      "name": "whitelisted",
      "outputs": [
        {
          "internalType": "bool",
          "name": "",
          "type": "bool"
        }
      ],
      "stateMutability": "view",
      "type": "function"
    }
  ],
  "transactionHash": "0x37192530cac0ba385dcdb88dbee8cadb6ee53e81772f1433c1ae5bd40ee17d4b",
  "args": [
    "Ookeenga",
    "OKG",
    "500000000000000000000000000"
  ],
  "numDeployments": 1,
  "solcInputHash": "a9fc2ff1a029e29a2e4a0087f0597922",
  "bytecode": "0x60806040523480156200001157600080fd5b50604051620031843803806200318483398181016040528101906200003791906200077a565b8282816003908051906020019062000051929190620004f2565b5080600490805190602001906200006a929190620004f2565b5050506000600560006101000a81548160ff021916908315150217905550620000a86200009c620000d260201b60201c565b620000da60201b60201c565b620000c9620000bc620000d260201b60201c565b82620001a060201b60201c565b50505062000a99565b600033905090565b6000600560019054906101000a900473ffffffffffffffffffffffffffffffffffffffff16905081600560016101000a81548173ffffffffffffffffffffffffffffffffffffffff021916908373ffffffffffffffffffffffffffffffffffffffff1602179055508173ffffffffffffffffffffffffffffffffffffffff168173ffffffffffffffffffffffffffffffffffffffff167f8be0079c531659141344cd1fd0a4f28419497f9722a3daafe3b4186f6b6457e060405160405180910390a35050565b600073ffffffffffffffffffffffffffffffffffffffff168273ffffffffffffffffffffffffffffffffffffffff160362000212576040517f08c379a0000000000000000000000000000000000000000000000000000000008152600401620002099062000875565b60405180910390fd5b62000226600083836200031860201b60201c565b80600260008282546200023a9190620008c6565b92505081905550806000808473ffffffffffffffffffffffffffffffffffffffff1673ffffffffffffffffffffffffffffffffffffffff1681526020019081526020016000206000828254620002919190620008c6565b925050819055508173ffffffffffffffffffffffffffffffffffffffff16600073ffffffffffffffffffffffffffffffffffffffff167fddf252ad1be2c89b69c2b068fc378daa952ba7f163c4a11628f55a4df523b3ef83604051620002f8919062000934565b60405180910390a36200031460008383620004d160201b60201c565b5050565b600660008473ffffffffffffffffffffffffffffffffffffffff1673ffffffffffffffffffffffffffffffffffffffff16815260200190815260200160002060009054906101000a900460ff1680620003ba5750600660008373ffffffffffffffffffffffffffffffffffffffff1673ffffffffffffffffffffffffffffffffffffffff16815260200190815260200160002060009054906101000a900460ff165b15620003fd576040517f08c379a0000000000000000000000000000000000000000000000000000000008152600401620003f490620009a1565b60405180910390fd5b6200040d620004d660201b60201c565b15806200047257506007600062000429620000d260201b60201c565b73ffffffffffffffffffffffffffffffffffffffff1673ffffffffffffffffffffffffffffffffffffffff16815260200190815260200160002060009054906101000a900460ff165b620004b4576040517f08c379a0000000000000000000000000000000000000000000000000000000008152600401620004ab9062000a13565b60405180910390fd5b620004cc838383620004ed60201b62000e0e1760201c565b505050565b505050565b6000600560009054906101000a900460ff16905090565b505050565b828054620005009062000a64565b90600052602060002090601f01602090048101928262000524576000855562000570565b82601f106200053f57805160ff191683800117855562000570565b8280016001018555821562000570579182015b828111156200056f57825182559160200191906001019062000552565b5b5090506200057f919062000583565b5090565b5b808211156200059e57600081600090555060010162000584565b5090565b6000604051905090565b600080fd5b600080fd5b600080fd5b600080fd5b6000601f19601f8301169050919050565b7f4e487b7100000000000000000000000000000000000000000000000000000000600052604160045260246000fd5b6200060b82620005c0565b810181811067ffffffffffffffff821117156200062d576200062c620005d1565b5b80604052505050565b600062000642620005a2565b905062000650828262000600565b919050565b600067ffffffffffffffff821115620006735762000672620005d1565b5b6200067e82620005c0565b9050602081019050919050565b60005b83811015620006ab5780820151818401526020810190506200068e565b83811115620006bb576000848401525b50505050565b6000620006d8620006d28462000655565b62000636565b905082815260208101848484011115620006f757620006f6620005bb565b5b620007048482856200068b565b509392505050565b600082601f830112620007245762000723620005b6565b5b815162000736848260208601620006c1565b91505092915050565b6000819050919050565b62000754816200073f565b81146200076057600080fd5b50565b600081519050620007748162000749565b92915050565b600080600060608486031215620007965762000795620005ac565b5b600084015167ffffffffffffffff811115620007b757620007b6620005b1565b5b620007c5868287016200070c565b935050602084015167ffffffffffffffff811115620007e957620007e8620005b1565b5b620007f7868287016200070c565b92505060406200080a8682870162000763565b9150509250925092565b600082825260208201905092915050565b7f45524332303a206d696e7420746f20746865207a65726f206164647265737300600082015250565b60006200085d601f8362000814565b91506200086a8262000825565b602082019050919050565b6000602082019050818103600083015262000890816200084e565b9050919050565b7f4e487b7100000000000000000000000000000000000000000000000000000000600052601160045260246000fd5b6000620008d3826200073f565b9150620008e0836200073f565b9250827fffffffffffffffffffffffffffffffffffffffffffffffffffffffffffffffff0382111562000918576200091762000897565b5b828201905092915050565b6200092e816200073f565b82525050565b60006020820190506200094b600083018462000923565b92915050565b7f5472616e7366657220626c61636b6c6973746564000000000000000000000000600082015250565b60006200098960148362000814565b9150620009968262000951565b602082019050919050565b60006020820190508181036000830152620009bc816200097a565b9050919050565b7f5472616e73666572207061757365640000000000000000000000000000000000600082015250565b6000620009fb600f8362000814565b915062000a0882620009c3565b602082019050919050565b6000602082019050818103600083015262000a2e81620009ec565b9050919050565b7f4e487b7100000000000000000000000000000000000000000000000000000000600052602260045260246000fd5b6000600282049050600182168062000a7d57607f821691505b60208210810362000a935762000a9262000a35565b5b50919050565b6126db8062000aa96000396000f3fe608060405234801561001057600080fd5b50600436106101585760003560e01c8063715018a6116100c3578063a9059cbb1161007c578063a9059cbb1461038f578063d936547e146103bf578063dbac26e9146103ef578063dd62ed3e1461041f578063f2fde38b1461044f578063f59c37081461046b57610158565b8063715018a6146102f357806379cc6790146102fd5780638456cb59146103195780638da5cb5b1461032357806395d89b4114610341578063a457c2d71461035f57610158565b80633f4ba83a116101155780633f4ba83a14610247578063404e51291461025157806340c10f191461026d57806342966c68146102895780635c975abb146102a557806370a08231146102c357610158565b806306fdde031461015d578063095ea7b31461017b57806318160ddd146101ab57806323b872dd146101c9578063313ce567146101f95780633950935114610217575b600080fd5b610165610487565b6040516101729190611a61565b60405180910390f35b61019560048036038101906101909190611b1c565b610519565b6040516101a29190611b77565b60405180910390f35b6101b361053c565b6040516101c09190611ba1565b60405180910390f35b6101e360048036038101906101de9190611bbc565b610546565b6040516101f09190611b77565b60405180910390f35b610201610575565b60405161020e9190611c2b565b60405180910390f35b610231600480360381019061022c9190611b1c565b61057e565b60405161023e9190611b77565b60405180910390f35b61024f610628565b005b61026b60048036038101906102669190611c72565b6106ae565b005b61028760048036038101906102829190611b1c565b610785565b005b6102a3600480360381019061029e9190611cb2565b61080f565b005b6102ad610823565b6040516102ba9190611b77565b60405180910390f35b6102dd60048036038101906102d89190611cdf565b61083a565b6040516102ea9190611ba1565b60405180910390f35b6102fb610882565b005b61031760048036038101906103129190611b1c565b61090a565b005b61032161092a565b005b61032b6109b0565b6040516103389190611d1b565b60405180910390f35b6103496109da565b6040516103569190611a61565b60405180910390f35b61037960048036038101906103749190611b1c565b610a6c565b6040516103869190611b77565b60405180910390f35b6103a960048036038101906103a49190611b1c565b610b56565b6040516103b69190611b77565b60405180910390f35b6103d960048036038101906103d49190611cdf565b610b79565b6040516103e69190611b77565b60405180910390f35b61040960048036038101906104049190611cdf565b610b99565b6040516104169190611b77565b60405180910390f35b61043960048036038101906104349190611d36565b610bb9565b6040516104469190611ba1565b60405180910390f35b61046960048036038101906104649190611cdf565b610c40565b005b61048560048036038101906104809190611c72565b610d37565b005b60606003805461049690611da5565b80601f01602080910402602001604051908101604052809291908181526020018280546104c290611da5565b801561050f5780601f106104e45761010080835404028352916020019161050f565b820191906000526020600020905b8154815290600101906020018083116104f257829003601f168201915b5050505050905090565b600080610524610e13565b9050610531818585610e1b565b600191505092915050565b6000600254905090565b600080610551610e13565b905061055e858285610fe4565b610569858585611070565b60019150509392505050565b60006012905090565b600080610589610e13565b905061061d818585600160008673ffffffffffffffffffffffffffffffffffffffff1673ffffffffffffffffffffffffffffffffffffffff16815260200190815260200160002060008973ffffffffffffffffffffffffffffffffffffffff1673ffffffffffffffffffffffffffffffffffffffff168152602001908152602001600020546106189190611e05565b610e1b565b600191505092915050565b610630610e13565b73ffffffffffffffffffffffffffffffffffffffff1661064e6109b0565b73ffffffffffffffffffffffffffffffffffffffff16146106a4576040517f08c379a000000000000000000000000000000000000000000000000000000000815260040161069b90611ea7565b60405180910390fd5b6106ac6112ef565b565b6106b6610e13565b73ffffffffffffffffffffffffffffffffffffffff166106d46109b0565b73ffffffffffffffffffffffffffffffffffffffff161461072a576040517f08c379a000000000000000000000000000000000000000000000000000000000815260040161072190611ea7565b60405180910390fd5b80600660008473ffffffffffffffffffffffffffffffffffffffff1673ffffffffffffffffffffffffffffffffffffffff16815260200190815260200160002060006101000a81548160ff0219169083151502179055505050565b61078d610e13565b73ffffffffffffffffffffffffffffffffffffffff166107ab6109b0565b73ffffffffffffffffffffffffffffffffffffffff1614610801576040517f08c379a00000000000000000000000000000000000000000000000000000000081526004016107f890611ea7565b60405180910390fd5b61080b8282611391565b5050565b61082061081a610e13565b826114f0565b50565b6000600560009054906101000a900460ff16905090565b60008060008373ffffffffffffffffffffffffffffffffffffffff1673ffffffffffffffffffffffffffffffffffffffff168152602001908152602001600020549050919050565b61088a610e13565b73ffffffffffffffffffffffffffffffffffffffff166108a86109b0565b73ffffffffffffffffffffffffffffffffffffffff16146108fe576040517f08c379a00000000000000000000000000000000000000000000000000000000081526004016108f590611ea7565b60405180910390fd5b61090860006116c6565b565b61091c82610916610e13565b83610fe4565b61092682826114f0565b5050565b610932610e13565b73ffffffffffffffffffffffffffffffffffffffff166109506109b0565b73ffffffffffffffffffffffffffffffffffffffff16146109a6576040517f08c379a000000000000000000000000000000000000000000000000000000000815260040161099d90611ea7565b60405180910390fd5b6109ae61178c565b565b6000600560019054906101000a900473ffffffffffffffffffffffffffffffffffffffff16905090565b6060600480546109e990611da5565b80601f0160208091040260200160405190810160405280929190818152602001828054610a1590611da5565b8015610a625780601f10610a3757610100808354040283529160200191610a62565b820191906000526020600020905b815481529060010190602001808311610a4557829003601f168201915b5050505050905090565b600080610a77610e13565b90506000600160008373ffffffffffffffffffffffffffffffffffffffff1673ffffffffffffffffffffffffffffffffffffffff16815260200190815260200160002060008673ffffffffffffffffffffffffffffffffffffffff1673ffffffffffffffffffffffffffffffffffffffff16815260200190815260200160002054905083811015610b3d576040517f08c379a0000000000000000000000000000000000000000000000000000000008152600401610b3490611f39565b60405180910390fd5b610b4a8286868403610e1b565b60019250505092915050565b600080610b61610e13565b9050610b6e818585611070565b600191505092915050565b60076020528060005260406000206000915054906101000a900460ff1681565b60066020528060005260406000206000915054906101000a900460ff1681565b6000600160008473ffffffffffffffffffffffffffffffffffffffff1673ffffffffffffffffffffffffffffffffffffffff16815260200190815260200160002060008373ffffffffffffffffffffffffffffffffffffffff1673ffffffffffffffffffffffffffffffffffffffff16815260200190815260200160002054905092915050565b610c48610e13565b73ffffffffffffffffffffffffffffffffffffffff16610c666109b0565b73ffffffffffffffffffffffffffffffffffffffff1614610cbc576040517f08c379a0000000000000000000000000000000000000000000000000000000008152600401610cb390611ea7565b60405180910390fd5b600073ffffffffffffffffffffffffffffffffffffffff168173ffffffffffffffffffffffffffffffffffffffff1603610d2b576040517f08c379a0000000000000000000000000000000000000000000000000000000008152600401610d2290611fcb565b60405180910390fd5b610d34816116c6565b50565b610d3f610e13565b73ffffffffffffffffffffffffffffffffffffffff16610d5d6109b0565b73ffffffffffffffffffffffffffffffffffffffff1614610db3576040517f08c379a0000000000000000000000000000000000000000000000000000000008152600401610daa90611ea7565b60405180910390fd5b80600760008473ffffffffffffffffffffffffffffffffffffffff1673ffffffffffffffffffffffffffffffffffffffff16815260200190815260200160002060006101000a81548160ff0219169083151502179055505050565b505050565b600033905090565b600073ffffffffffffffffffffffffffffffffffffffff168373ffffffffffffffffffffffffffffffffffffffff1603610e8a576040517f08c379a0000000000000000000000000000000000000000000000000000000008152600401610e819061205d565b60405180910390fd5b600073ffffffffffffffffffffffffffffffffffffffff168273ffffffffffffffffffffffffffffffffffffffff1603610ef9576040517f08c379a0000000000000000000000000000000000000000000000000000000008152600401610ef0906120ef565b60405180910390fd5b80600160008573ffffffffffffffffffffffffffffffffffffffff1673ffffffffffffffffffffffffffffffffffffffff16815260200190815260200160002060008473ffffffffffffffffffffffffffffffffffffffff1673ffffffffffffffffffffffffffffffffffffffff168152602001908152602001600020819055508173ffffffffffffffffffffffffffffffffffffffff168373ffffffffffffffffffffffffffffffffffffffff167f8c5be1e5ebec7d5bd14f71427d1e84f3dd0314c0f7b2291e5b200ac8c7c3b92583604051610fd79190611ba1565b60405180910390a3505050565b6000610ff08484610bb9565b90507fffffffffffffffffffffffffffffffffffffffffffffffffffffffffffffffff811461106a578181101561105c576040517f08c379a00000000000000000000000000000000000000000000000000000000081526004016110539061215b565b60405180910390fd5b6110698484848403610e1b565b5b50505050565b600073ffffffffffffffffffffffffffffffffffffffff168373ffffffffffffffffffffffffffffffffffffffff16036110df576040517f08c379a00000000000000000000000000000000000000000000000000000000081526004016110d6906121ed565b60405180910390fd5b600073ffffffffffffffffffffffffffffffffffffffff168273ffffffffffffffffffffffffffffffffffffffff160361114e576040517f08c379a00000000000000000000000000000000000000000000000000000000081526004016111459061227f565b60405180910390fd5b61115983838361182f565b60008060008573ffffffffffffffffffffffffffffffffffffffff1673ffffffffffffffffffffffffffffffffffffffff168152602001908152602001600020549050818110156111df576040517f08c379a00000000000000000000000000000000000000000000000000000000081526004016111d690612311565b60405180910390fd5b8181036000808673ffffffffffffffffffffffffffffffffffffffff1673ffffffffffffffffffffffffffffffffffffffff16815260200190815260200160002081905550816000808573ffffffffffffffffffffffffffffffffffffffff1673ffffffffffffffffffffffffffffffffffffffff16815260200190815260200160002060008282546112729190611e05565b925050819055508273ffffffffffffffffffffffffffffffffffffffff168473ffffffffffffffffffffffffffffffffffffffff167fddf252ad1be2c89b69c2b068fc378daa952ba7f163c4a11628f55a4df523b3ef846040516112d69190611ba1565b60405180910390a36112e98484846119c3565b50505050565b6112f7610823565b611336576040517f08c379a000000000000000000000000000000000000000000000000000000000815260040161132d9061237d565b60405180910390fd5b6000600560006101000a81548160ff0219169083151502179055507f5db9ee0a495bf2e6ff9c91a7834c1ba4fdd244a5e8aa4e537bd38aeae4b073aa61137a610e13565b6040516113879190611d1b565b60405180910390a1565b600073ffffffffffffffffffffffffffffffffffffffff168273ffffffffffffffffffffffffffffffffffffffff1603611400576040517f08c379a00000000000000000000000000000000000000000000000000000000081526004016113f7906123e9565b60405180910390fd5b61140c6000838361182f565b806002600082825461141e9190611e05565b92505081905550806000808473ffffffffffffffffffffffffffffffffffffffff1673ffffffffffffffffffffffffffffffffffffffff16815260200190815260200160002060008282546114739190611e05565b925050819055508173ffffffffffffffffffffffffffffffffffffffff16600073ffffffffffffffffffffffffffffffffffffffff167fddf252ad1be2c89b69c2b068fc378daa952ba7f163c4a11628f55a4df523b3ef836040516114d89190611ba1565b60405180910390a36114ec600083836119c3565b5050565b600073ffffffffffffffffffffffffffffffffffffffff168273ffffffffffffffffffffffffffffffffffffffff160361155f576040517f08c379a00000000000000000000000000000000000000000000000000000000081526004016115569061247b565b60405180910390fd5b61156b8260008361182f565b60008060008473ffffffffffffffffffffffffffffffffffffffff1673ffffffffffffffffffffffffffffffffffffffff168152602001908152602001600020549050818110156115f1576040517f08c379a00000000000000000000000000000000000000000000000000000000081526004016115e89061250d565b60405180910390fd5b8181036000808573ffffffffffffffffffffffffffffffffffffffff1673ffffffffffffffffffffffffffffffffffffffff168152602001908152602001600020819055508160026000828254611648919061252d565b92505081905550600073ffffffffffffffffffffffffffffffffffffffff168373ffffffffffffffffffffffffffffffffffffffff167fddf252ad1be2c89b69c2b068fc378daa952ba7f163c4a11628f55a4df523b3ef846040516116ad9190611ba1565b60405180910390a36116c1836000846119c3565b505050565b6000600560019054906101000a900473ffffffffffffffffffffffffffffffffffffffff16905081600560016101000a81548173ffffffffffffffffffffffffffffffffffffffff021916908373ffffffffffffffffffffffffffffffffffffffff1602179055508173ffffffffffffffffffffffffffffffffffffffff168173ffffffffffffffffffffffffffffffffffffffff167f8be0079c531659141344cd1fd0a4f28419497f9722a3daafe3b4186f6b6457e060405160405180910390a35050565b611794610823565b156117d4576040517f08c379a00000000000000000000000000000000000000000000000000000000081526004016117cb906125ad565b60405180910390fd5b6001600560006101000a81548160ff0219169083151502179055507f62e78cea01bee320cd4e420270b5ea74000d11b0c9f74754ebdbfc544b05a258611818610e13565b6040516118259190611d1b565b60405180910390a1565b600660008473ffffffffffffffffffffffffffffffffffffffff1673ffffffffffffffffffffffffffffffffffffffff16815260200190815260200160002060009054906101000a900460ff16806118d05750600660008373ffffffffffffffffffffffffffffffffffffffff1673ffffffffffffffffffffffffffffffffffffffff16815260200190815260200160002060009054906101000a900460ff165b15611910576040517f08c379a000000000000000000000000000000000000000000000000000000000815260040161190790612619565b60405180910390fd5b611918610823565b158061197457506007600061192b610e13565b73ffffffffffffffffffffffffffffffffffffffff1673ffffffffffffffffffffffffffffffffffffffff16815260200190815260200160002060009054906101000a900460ff165b6119b3576040517f08c379a00000000000000000000000000000000000000000000000000000000081526004016119aa90612685565b60405180910390fd5b6119be838383610e0e565b505050565b505050565b600081519050919050565b600082825260208201905092915050565b60005b83811015611a025780820151818401526020810190506119e7565b83811115611a11576000848401525b50505050565b6000601f19601f8301169050919050565b6000611a33826119c8565b611a3d81856119d3565b9350611a4d8185602086016119e4565b611a5681611a17565b840191505092915050565b60006020820190508181036000830152611a7b8184611a28565b905092915050565b600080fd5b600073ffffffffffffffffffffffffffffffffffffffff82169050919050565b6000611ab382611a88565b9050919050565b611ac381611aa8565b8114611ace57600080fd5b50565b600081359050611ae081611aba565b92915050565b6000819050919050565b611af981611ae6565b8114611b0457600080fd5b50565b600081359050611b1681611af0565b92915050565b60008060408385031215611b3357611b32611a83565b5b6000611b4185828601611ad1565b9250506020611b5285828601611b07565b9150509250929050565b60008115159050919050565b611b7181611b5c565b82525050565b6000602082019050611b8c6000830184611b68565b92915050565b611b9b81611ae6565b82525050565b6000602082019050611bb66000830184611b92565b92915050565b600080600060608486031215611bd557611bd4611a83565b5b6000611be386828701611ad1565b9350506020611bf486828701611ad1565b9250506040611c0586828701611b07565b9150509250925092565b600060ff82169050919050565b611c2581611c0f565b82525050565b6000602082019050611c406000830184611c1c565b92915050565b611c4f81611b5c565b8114611c5a57600080fd5b50565b600081359050611c6c81611c46565b92915050565b60008060408385031215611c8957611c88611a83565b5b6000611c9785828601611ad1565b9250506020611ca885828601611c5d565b9150509250929050565b600060208284031215611cc857611cc7611a83565b5b6000611cd684828501611b07565b91505092915050565b600060208284031215611cf557611cf4611a83565b5b6000611d0384828501611ad1565b91505092915050565b611d1581611aa8565b82525050565b6000602082019050611d306000830184611d0c565b92915050565b60008060408385031215611d4d57611d4c611a83565b5b6000611d5b85828601611ad1565b9250506020611d6c85828601611ad1565b9150509250929050565b7f4e487b7100000000000000000000000000000000000000000000000000000000600052602260045260246000fd5b60006002820490506001821680611dbd57607f821691505b602082108103611dd057611dcf611d76565b5b50919050565b7f4e487b7100000000000000000000000000000000000000000000000000000000600052601160045260246000fd5b6000611e1082611ae6565b9150611e1b83611ae6565b9250827fffffffffffffffffffffffffffffffffffffffffffffffffffffffffffffffff03821115611e5057611e4f611dd6565b5b828201905092915050565b7f4f776e61626c653a2063616c6c6572206973206e6f7420746865206f776e6572600082015250565b6000611e916020836119d3565b9150611e9c82611e5b565b602082019050919050565b60006020820190508181036000830152611ec081611e84565b9050919050565b7f45524332303a2064656372656173656420616c6c6f77616e63652062656c6f7760008201527f207a65726f000000000000000000000000000000000000000000000000000000602082015250565b6000611f236025836119d3565b9150611f2e82611ec7565b604082019050919050565b60006020820190508181036000830152611f5281611f16565b9050919050565b7f4f776e61626c653a206e6577206f776e657220697320746865207a65726f206160008201527f6464726573730000000000000000000000000000000000000000000000000000602082015250565b6000611fb56026836119d3565b9150611fc082611f59565b604082019050919050565b60006020820190508181036000830152611fe481611fa8565b9050919050565b7f45524332303a20617070726f76652066726f6d20746865207a65726f2061646460008201527f7265737300000000000000000000000000000000000000000000000000000000602082015250565b60006120476024836119d3565b915061205282611feb565b604082019050919050565b600060208201905081810360008301526120768161203a565b9050919050565b7f45524332303a20617070726f766520746f20746865207a65726f20616464726560008201527f7373000000000000000000000000000000000000000000000000000000000000602082015250565b60006120d96022836119d3565b91506120e48261207d565b604082019050919050565b60006020820190508181036000830152612108816120cc565b9050919050565b7f45524332303a20696e73756666696369656e7420616c6c6f77616e6365000000600082015250565b6000612145601d836119d3565b91506121508261210f565b602082019050919050565b6000602082019050818103600083015261217481612138565b9050919050565b7f45524332303a207472616e736665722066726f6d20746865207a65726f20616460008201527f6472657373000000000000000000000000000000000000000000000000000000602082015250565b60006121d76025836119d3565b91506121e28261217b565b604082019050919050565b60006020820190508181036000830152612206816121ca565b9050919050565b7f45524332303a207472616e7366657220746f20746865207a65726f206164647260008201527f6573730000000000000000000000000000000000000000000000000000000000602082015250565b60006122696023836119d3565b91506122748261220d565b604082019050919050565b600060208201905081810360008301526122988161225c565b9050919050565b7f45524332303a207472616e7366657220616d6f756e742065786365656473206260008201527f616c616e63650000000000000000000000000000000000000000000000000000602082015250565b60006122fb6026836119d3565b91506123068261229f565b604082019050919050565b6000602082019050818103600083015261232a816122ee565b9050919050565b7f5061757361626c653a206e6f7420706175736564000000000000000000000000600082015250565b60006123676014836119d3565b915061237282612331565b602082019050919050565b600060208201905081810360008301526123968161235a565b9050919050565b7f45524332303a206d696e7420746f20746865207a65726f206164647265737300600082015250565b60006123d3601f836119d3565b91506123de8261239d565b602082019050919050565b60006020820190508181036000830152612402816123c6565b9050919050565b7f45524332303a206275726e2066726f6d20746865207a65726f2061646472657360008201527f7300000000000000000000000000000000000000000000000000000000000000602082015250565b60006124656021836119d3565b915061247082612409565b604082019050919050565b6000602082019050818103600083015261249481612458565b9050919050565b7f45524332303a206275726e20616d6f756e7420657863656564732062616c616e60008201527f6365000000000000000000000000000000000000000000000000000000000000602082015250565b60006124f76022836119d3565b91506125028261249b565b604082019050919050565b60006020820190508181036000830152612526816124ea565b9050919050565b600061253882611ae6565b915061254383611ae6565b92508282101561255657612555611dd6565b5b828203905092915050565b7f5061757361626c653a2070617573656400000000000000000000000000000000600082015250565b60006125976010836119d3565b91506125a282612561565b602082019050919050565b600060208201905081810360008301526125c68161258a565b9050919050565b7f5472616e7366657220626c61636b6c6973746564000000000000000000000000600082015250565b60006126036014836119d3565b915061260e826125cd565b602082019050919050565b60006020820190508181036000830152612632816125f6565b9050919050565b7f5472616e73666572207061757365640000000000000000000000000000000000600082015250565b600061266f600f836119d3565b915061267a82612639565b602082019050919050565b6000602082019050818103600083015261269e81612662565b905091905056fea2646970667358221220401ab98a922e4b020d1bb9eddc372d1c99b1ac7e68e10601d8175e448c70ad1864736f6c634300080d0033",
  "devdoc": {
    "kind": "dev",
    "methods": {
      "allowance(address,address)": {
        "details": "See {IERC20-allowance}."
      },
      "approve(address,uint256)": {
        "details": "See {IERC20-approve}. NOTE: If `amount` is the maximum `uint256`, the allowance is not updated on `transferFrom`. This is semantically equivalent to an infinite approval. Requirements: - `spender` cannot be the zero address."
      },
      "balanceOf(address)": {
        "details": "See {IERC20-balanceOf}."
      },
      "blacklist(address,bool)": {
        "details": "Blacklist user to prevent transfer Requirements: - the caller must be owner."
      },
      "burn(uint256)": {
        "details": "Destroys `amount` tokens from the caller. See {ERC20-_burn}."
      },
      "burnFrom(address,uint256)": {
        "details": "Destroys `amount` tokens from `account`, deducting from the caller's allowance. See {ERC20-_burn} and {ERC20-allowance}. Requirements: - the caller must have allowance for ``accounts``'s tokens of at least `amount`."
      },
      "decimals()": {
        "details": "Returns the number of decimals used to get its user representation. For example, if `decimals` equals `2`, a balance of `505` tokens should be displayed to a user as `5.05` (`505 / 10 ** 2`). Tokens usually opt for a value of 18, imitating the relationship between Ether and Wei. This is the value {ERC20} uses, unless this function is overridden; NOTE: This information is only used for _display_ purposes: it in no way affects any of the arithmetic of the contract, including {IERC20-balanceOf} and {IERC20-transfer}."
      },
      "decreaseAllowance(address,uint256)": {
        "details": "Atomically decreases the allowance granted to `spender` by the caller. This is an alternative to {approve} that can be used as a mitigation for problems described in {IERC20-approve}. Emits an {Approval} event indicating the updated allowance. Requirements: - `spender` cannot be the zero address. - `spender` must have allowance for the caller of at least `subtractedValue`."
      },
      "increaseAllowance(address,uint256)": {
        "details": "Atomically increases the allowance granted to `spender` by the caller. This is an alternative to {approve} that can be used as a mitigation for problems described in {IERC20-approve}. Emits an {Approval} event indicating the updated allowance. Requirements: - `spender` cannot be the zero address."
      },
      "name()": {
        "details": "Returns the name of the token."
      },
      "owner()": {
        "details": "Returns the address of the current owner."
      },
      "pause()": {
        "details": "Pauses all token transfers. Requirements: - the caller must must be owner."
      },
      "paused()": {
        "details": "Returns true if the contract is paused, and false otherwise."
      },
      "renounceOwnership()": {
        "details": "Leaves the contract without owner. It will not be possible to call `onlyOwner` functions anymore. Can only be called by the current owner. NOTE: Renouncing ownership will leave the contract without an owner, thereby removing any functionality that is only available to the owner."
      },
      "symbol()": {
        "details": "Returns the symbol of the token, usually a shorter version of the name."
      },
      "totalSupply()": {
        "details": "See {IERC20-totalSupply}."
      },
      "transfer(address,uint256)": {
        "details": "See {IERC20-transfer}. Requirements: - `to` cannot be the zero address. - the caller must have a balance of at least `amount`."
      },
      "transferFrom(address,address,uint256)": {
        "details": "See {IERC20-transferFrom}. Emits an {Approval} event indicating the updated allowance. This is not required by the EIP. See the note at the beginning of {ERC20}. NOTE: Does not update the allowance if the current allowance is the maximum `uint256`. Requirements: - `from` and `to` cannot be the zero address. - `from` must have a balance of at least `amount`. - the caller must have allowance for ``from``'s tokens of at least `amount`."
      },
      "transferOwnership(address)": {
        "details": "Transfers ownership of the contract to a new account (`newOwner`). Can only be called by the current owner."
      },
      "unpause()": {
        "details": "Unpauses all token transfers. Requirements: - the caller must be owner."
      },
      "whitelist(address,bool)": {
        "details": "Whitelist user to allow transfer even when paused Requirements: - the caller must be owner."
      }
    },
    "version": 1
  },
  "userdoc": {
    "kind": "user",
    "methods": {},
    "version": 1
  },
  "storageLayout": {
    "storage": [
      {
        "astId": 212,
        "contract": "contracts/OKGToken.sol:OKGToken",
        "label": "_balances",
        "offset": 0,
        "slot": "0",
        "type": "t_mapping(t_address,t_uint256)"
      },
      {
        "astId": 218,
        "contract": "contracts/OKGToken.sol:OKGToken",
        "label": "_allowances",
        "offset": 0,
        "slot": "1",
        "type": "t_mapping(t_address,t_mapping(t_address,t_uint256))"
      },
      {
        "astId": 220,
        "contract": "contracts/OKGToken.sol:OKGToken",
        "label": "_totalSupply",
        "offset": 0,
        "slot": "2",
        "type": "t_uint256"
      },
      {
        "astId": 222,
        "contract": "contracts/OKGToken.sol:OKGToken",
        "label": "_name",
        "offset": 0,
        "slot": "3",
        "type": "t_string_storage"
      },
      {
        "astId": 224,
        "contract": "contracts/OKGToken.sol:OKGToken",
        "label": "_symbol",
        "offset": 0,
        "slot": "4",
        "type": "t_string_storage"
      },
      {
        "astId": 122,
        "contract": "contracts/OKGToken.sol:OKGToken",
        "label": "_paused",
        "offset": 0,
        "slot": "5",
        "type": "t_bool"
      },
      {
        "astId": 7,
        "contract": "contracts/OKGToken.sol:OKGToken",
        "label": "_owner",
        "offset": 1,
        "slot": "5",
        "type": "t_address"
      },
      {
        "astId": 968,
        "contract": "contracts/OKGToken.sol:OKGToken",
        "label": "blacklisted",
        "offset": 0,
        "slot": "6",
        "type": "t_mapping(t_address,t_bool)"
      },
      {
        "astId": 972,
        "contract": "contracts/OKGToken.sol:OKGToken",
        "label": "whitelisted",
        "offset": 0,
        "slot": "7",
        "type": "t_mapping(t_address,t_bool)"
      }
    ],
    "types": {
      "t_address": {
        "encoding": "inplace",
        "label": "address",
        "numberOfBytes": "20"
      },
      "t_bool": {
        "encoding": "inplace",
        "label": "bool",
        "numberOfBytes": "1"
      },
      "t_mapping(t_address,t_bool)": {
        "encoding": "mapping",
        "key": "t_address",
        "label": "mapping(address => bool)",
        "numberOfBytes": "32",
        "value": "t_bool"
      },
      "t_mapping(t_address,t_mapping(t_address,t_uint256))": {
        "encoding": "mapping",
        "key": "t_address",
        "label": "mapping(address => mapping(address => uint256))",
        "numberOfBytes": "32",
        "value": "t_mapping(t_address,t_uint256)"
      },
      "t_mapping(t_address,t_uint256)": {
        "encoding": "mapping",
        "key": "t_address",
        "label": "mapping(address => uint256)",
        "numberOfBytes": "32",
        "value": "t_uint256"
      },
      "t_string_storage": {
        "encoding": "bytes",
        "label": "string",
        "numberOfBytes": "32"
      },
      "t_uint256": {
        "encoding": "inplace",
        "label": "uint256",
        "numberOfBytes": "32"
      }
    }
  }
}